:100000008C030020034E00001B4800001B4800002A
:100010001B4800001B4800001B48000000000000B7
:100020000000000000000000000000004B4800003D
:100030004B480000000000004B480000F147000062
:100040004B4800004B4800004B480000734800003C
:100050004B4800004B4800009D480000C748000086
:10006000F14800001B490000454900004B480000D2
:100070004B4800004B4800004B4800004B48000034
:100080004B4800004B4800006D4900004B48000001
:100090004B4800004B4800004B48000097490000C7
:1000A000C3490000EF4900001B4A0000474A000016
:1000B000714A00009B4A0000C54A0000F14A000056
:1000C0001D4B0000474B0000714B0000994B000096
:1000D000C14B0000EB4B0000154C00003F4C0000F2
:1000E000694C0000954C0000BF4C0000000000006F
:1000F0000000000000000000000000000000000000
:100100000000000000000000E74C00000F4D000060
:10011000374D00005F4D0000874D0000AF4D0000DF
:100120004B4800004B4800004B4800004B48000083
:100130004B4800004B4800004B4800004B48000073
:100140004B4800004B4800004B480000D74D0000D2
:1001500094050000FFFF1E2D2D2D204D6563726953
:1001600073702D5374656C6C6172697320436F7288
:1001700065202D2D2D0007B59148002B09D000F0EA
:100180003BF800F041F800F027F8426028210160B8
:10019000F3E707BD00B58A4800230168282905D187
:1001A000426800F004F800F04CF8F6E700BD03B533
:1001B00047F8046D160047F8046D1E0008B400F0FF
:1001C000A5FF08BC013347F8046D7E4E47F8046D67
:1001D0007D4E04F04EF903BD03B5013B47F8046DB5
:1001E0001E0008B400F07CFF08BC320047F8046D24
:1001F000764E04F03EF903BD03B5754801681E292B
:1002000001D000F034F803BD8169016201698161A8
:100210008168016101688160C16941624169C161B0
:10022000C16841614168C1601E21016070470FB51E
:10023000634801681E2903D0FFF7DEFFFFF7E4FFE4
:100240000FBD02B581680160C168416000E002B580
:10025000016981604169C16081690161C169416170
:10026000016A8161416AC1611E21016202BD08B556
:1002700001681E220260082901D20B0004E028292F
:1002800009D1436800F05BF847F8046D514E56EA17
:10029000033602F0B1FF08BD00B500F009F800F028
:1002A0000CF800F00FF800F012F800F015F800BD9F
:1002B0000FB54748FFF7DBFF0FBD0FB54648FFF707
:1002C000D6FF0FBD0FB54548FFF7D1FF0FBD0FB5E6
:1002D0004348FFF7CCFF0FBD0FB539480168062230
:1002E00002601E2906D147F8046D4CF6407602F0F4
:1002F00054FF15E0282909D1436847F8046D1E0012
:1003000047F8046D062602F019FC09E0062907D01B
:1003100047F8046D44F20666C9000E4302F03DFF43
:1003200000F001F80FBD26481E21016281610161C4
:100330008160C1620621016000218162704707B5BA
:1003400047F8046D1E0000F04DF847F8046D1E00DC
:1003500002F0F4FB07BD07B5C16A282904D1016B7F
:10036000994201D1002307BD0168002900F01D80DA
:100370008168002900F019800169002900F01580CA
:100380008169002900F01180016A002900F00D80C8
:10039000036347F8046D1E0047F8046D002602F061
:1003A000CDFB2821C162002307BD47F8046D1E0064
:1003B00000F018F847F8046D1E0002F0BFFB07BDFF
:1003C00028000020940E00006102000000200000C0
:1003D00048000020040D47F84000002038000020AD
:1003E0003000002037B536480168826803698469A7
:1003F000056A062000F00EF8032000F00BF802203A
:1004000000F008F8012000F005F800232C481E2118
:10041000C16237BD814209D0824207D0834205D0F4
:10042000844203D0854201D0030037BD704747F8AE
:10043000046D4CF6007600B581581E2905D1FFF7F2
:10044000D1FF8350012199400E4300BD00B50168E2
:100450001E2904D10022FFF7EAFF02F09EFE00BD34
:1004600000B581681E2907D10822FFF7E0FF0022AE
:10047000FFF7E1FF02F091FE00BD00B501691E2902
:100480000AD11022FFF7D3FF0822FFF7D4FF002282
:10049000FFF7D1FF02F081FE00BD00B581691E2982
:1004A0000DD11822FFF7C3FF1022FFF7C4FF082267
:1004B000FFF7C1FF0022FFF7BEFF02F06EFE00BD96
:1004C0002800002000B50168282904D14368FFF7FF
:1004D00036FF0360190000BD00B58168282904D1EA
:1004E000C368FFF72CFF8360190000BD00B50169E8
:1004F000282904D14369FFF722FF0361190000BDD9
:100500003EB5826803698469056A9A4203D0A242B3
:1005100001D0AA420AD1072A08D847F8046DD600AC
:10052000FFF760FF1E43836002F037FE3EBD3EB51D
:100530000168826803698469056A914206D099421C
:1005400004D0A14202D0A94200D03EBD47F8046DBC
:10055000CE00FFF747FF1E43036002F01EFE3EBDC4
:1005600000B5FFF76EFEFFF762FEFFF73BFF03608B
:1005700000BD01B506480368013308D00023DB4302
:10058000036047F8046D4BF2005602F006FE01BD11
:10059000D84F0020B8050000420204326475700094
:1005A000386847F8046D043F3860704700B500F0C4
:1005B000C3FC00F0C1FC00BDD6050000620205329C
:1005C00064726F70043740CF704700B500F064FC70
:1005D00000F062FC00BD1C06000044020532737787
:1005E000617007CF043F386047F8046D043F3A60FC
:1005F0000E00704700B5FFF750FF02680369036003
:100600000261426843694360426182688369836032
:100610008261C268C369C360C26100BD4406000054
:10062000620204326E69700007CF043F3860704781
:1006300000B5FFF732FFFFF7DDFFFFF702FEFFF720
:1006400000FE00BD5E060000440005326F76657254
:10065000B86847F8046D043F3860FE68704782064A
:100660000000440005327475636B07CF043F3860A7
:1006700047F8046D043F3A60043F3960043F386036
:100680007047A406000046000432726F7400386898
:10069000B9683A69B86039613A6079687E60FE6825
:1006A000F9607047C6060000460005322D726F746F
:1006B0003868B9683A6938613960BA60F968FE60CB
:1006C0007E6879607047EE060000200203323E72B9
:1006D00001CF01B440B440CF704700B5FFF749FFE8
:1006E00000F0FDFB00F09DFC00F09BFC00BD1A0734
:1006F000000020020332723E47F8046D40BC01BC8A
:10070000043F3860704700B5FFF733FF00F0A5FCE9
:1007100000F0A3FC00F0E3FB00BD4A07000020024C
:100720000332724047F8046D019E47F8046D009E45
:10073000704700B5FFF71DFF47F8046D49F6010645
:1007400003F051FA03F04BFA00BD700700002002DD
:1007500006327264726F700002B0704700B5FFF726
:1007600008FF47F8046D4BF2020602F016FD00BDCB
:100770008807000042000364322F3868F1077610C2
:1007800040080843386070479E0700006202036417
:10079000322A3868001876413860704717E0B80789
:1007A000000042000464736872003868F10776083C
:1007B000400808433860704704080000620204647F
:1007C00073686C003868001876413860704700B56F
:1007D000FFF746FEFFF776FEFFF7A9FE00F07FFB6E
:1007E000FFF770FEFFF7A3FE47F8046D402601F007
:1007F00057FC00F074FB47F8046D44F2401601F01A
:100800004FFC00BD160800004200046461627300E2
:10081000002E07D4704734080000420007646E655C
:100820006761746538680021C043F64301304E416A
:100830003860704784080000640202642D0007CF0E
:10084000121AB1410E00043F3A60704700B5FFF73D
:1008500024FE00F099FBFFF735FEFFF768FE00F07D
:100860003EFBFFF72FFEFFF762FEFFF7C3FE01F02E
:1008700081FB00F0A5FB47F8046D44F2801600F000
:1008800031FD00BDD2080000640202642B0007CFD6
:1008900012184E41043F3A60704700B5FFF7FDFD66
:1008A00000F072FBFFF70EFEFFF741FE00F017FBB2
:1008B000FFF708FEFFF73BFEFFF79CFE01F03FFB52
:1008C00000F07EFB47F8046D44F2401600F00EFD88
:1008D00000BDFC080000610203733E6447F8046D2C
:1008E000F617704700B500F0C5FAFFF720FE47F88D
:1008F000046D41F2C07601F0D3FB00BD5A0900003F
:10090000620203756D2A3868A0FB060638607047DE
:1009100047F8046DDFF8006500B5FFF7A1FDFFF7AC
:10092000D1FDFFF7D9FD01680E43816856EA014603
:10093000FFF787FCFFF785FCFFF779FCFFF752FD17
:10094000036056EA0336FFF772FCFFF74BFD0360C6
:1009500056EA032602F050FC00BD7809000062024E
:10096000026D2A00386880FB06063860704747F839
:10097000046DDFF8A864CFE7B609000044000375F2
:10098000642A07CF564341437618010C130C594390
:100990007618010C80B292B2514343435043002277
:1009A000C91852411204B6180A04090C80184E41A5
:1009B000043F38607047480A000044000475646DC5
:1009C0002A0010B5002447F8046D7E6847F8046DCE
:1009D0003E69FFF798FF310040CF300040CF47F825
:1009E000046D3E6847F8046DFE6803B4FFF78BFFA3
:1009F00003BC330040CF320040CF47F8046D3E685F
:100A000047F8046D3E690FB4FFF77DFF0FBC9219E4
:100A1000634140CF89196241634140CF47F8046D7B
:100A20007E6847F8046DFE680FB4FFF76CFF0FBCDB
:100A30009219634140CF89196241634140CF1E0042
:100A40003A607960B86010BD6A0A00004300022A6B
:100A50002F0000B540B440CFFFF784FF47F8046D86
:100A600040BC00F04CF8043700BD8C0A0000430085
:100A7000052A2F6D6F6400B540B440CFFFF772FFB9
:100A800047F8046D40BC00F03AF800BDAE0A000023
:100A9000430003752A2F00B540B440CFFFF733FF62
:100AA00047F8046D40BC00F01BF8043700BDD20AC3
:100AB0000000430006752A2F6D6F640000B540B436
:100AC00040CFFFF720FF47F8046D40BC00F008F866
:100AD00000BDF20A0000430006756D2F6D6F6400C3
:100AE00000B547F8046D002600F019F840CF043730
:100AF00000BD100B00004300056D2F6D6F6400B545
:100B000047F8046DF61700F032F840CF043700BD07
:100B1000620B000044000675642F6D6F640030B4F2
:100B2000002300227968B86835003C684026400000
:100B3000494152415B41AB4202D804D3A24202D3A5
:100B4000121BAB410130013EF1D10E0038607B60D9
:100B5000BA6030BC704730B400237A68B9680020AE
:100B6000E2E7D80B0000440005642F6D6F6400B508
:100B7000F01719D0FFF756FEFFF733FDF0170CD032
:100B8000FFF750FEFFF72DFDFFF7C9FFFFF729FD27
:100B9000FFF748FEFFF725FD00BDFFF722FDFFF739
:100BA000BEFFFFF73FFE00BDFFF71BFDF0170ED0A5
:100BB000FFF738FEFFF715FDFFF7B1FFFFF732FE35
:100BC000FFF70FFDFFF72EFEFFF70BFD00BDFFF750
:100BD00008FDFFF7A4FF00BDEE0B00004400026417
:100BE0002F0000B5FFF7C3FFFFF71EFD00BD360C59
:100BF0000000440002662A0000B5F0170DD0FFF790
:100C000011FEFFF7EEFCF0170DD0FFF70BFEFFF71C
:100C1000D8FE40CF01CF386000BDFFF7E2FCF017EF
:100C2000F5D0FFF7FFFDFFF7CCFE40CF01CF3860D6
:100C3000FFF7F8FD00BD820C0000440002662F00A3
:100C400000B5F0170ED0FFF7EDFDFFF7CAFCF01767
:100C50000ED0FFF7E7FDFFF7C4FCFFF77CFFFFF7BF
:100C6000E3FC00BDFFF7BDFCF017F4D0FFF7DAFDA1
:100C7000FFF7B7FCFFF76FFFFFF7D4FDFFF7D4FCDA
:100C800000BDCA0C000020020232210006CF3160F4
:100C9000726040CF704700B5FFF7EFFB0168426814
:100CA00006B400F0F2FDFFF7C2FA06BC0160282985
:100CB00006D047F8046D46F2400600F0EAFD00BD9C
:100CC0000432426000F0E1FD00BD140D000020027E
:100CD00002324000043F706838603668704700B5E3
:100CE00000F0C8F8016828290AD047F8046D46F6D4
:100CF000400600F0ABFD00F0F2F800F0A3FD00BDEF
:100D000041680431416000F09DFD00F0E8F800F01A
:100D100099FD00BD280D000044000364753C07CF19
:100D2000121AB141B64170473C0D00004400036403
:100D3000753E07CF801A8E41B6417047520D0000B4
:100D4000440002643C0007CF121AB1410CDB0026BC
:100D500070476E0D0000440002643E0007CF801A09
:100D60008E4101DB002670470026F64370478A0D4E
:100D7000000062020364303C0437F617704700B588
:100D800000F0C0F800F03CFB00BDB20D00006202B4
:100D90000364303D01CF0643013EB641704700B5C4
:100DA00047F8046D44F2003600F0A0FA00F004FBAE
:100DB00000BDD80D0000440203643C3E07CF504004
:100DC0004E400643013EB641F643704700B500F081
:100DD00015F800F004FB00BD200E00004402026480
:100DE0003D0007CF50404E400643013EB64170479C
:100DF00000B500F003F800F0DFFA00BD00B5FFF722
:100E00004CFB00F0C1F800F0C3F900F0D9F800F095
:100E1000BFF900F0B0F900BD0000A0FB000080FBAE
:100E2000320E000020000373704047F8046D3E004E
:100E30007047420E0000200003737021370040CF3E
:100E40007047540E000020000372704047F8046D94
:100E50006E467047640E0000200003727021B54694
:100E600040CF7047880E000061020364757047F838
:100E7000046D704706B5FFF7E9FA01684268FFF7AD
:100E8000D6F90160426006BDB40E00006102046440
:100E9000726F700040CF704700B501681E2906D1FF
:100EA00047F8046D43F2047602F077F900BDFFF7CE
:100EB000C8F900BDCA0E00006100043F64757000EF
:100EC000002E01D047F8046D7047F60E0000620254
:100ED00004737761700039683E600E0070470CB58E
:100EE000FFF7BEFA02688368036082604268C368E5
:100EF0004360C2600CBD240F00006202036E697083
:100F00000437704700B5FFF7A1FA81681E2902D0A7
:100F1000FFF79DF900BD47F8046D43F2047602F037
:100F20003CF900BD4C0F00006202046F7665720050
:100F300047F8046D7E68704700B5FFF791FA816845
:100F4000C268FFF774F90160426000BD720F0000D3
:100F50006202047475636B0001CF083F7E603860E5
:100F6000704700B5FFF77CFAFFF784FF00F028F820
:100F700000BDA80F0000630203726F7403CF083F27
:100F800078603E600E0070470EB5FFF776FA016894
:100F9000826803698160026103604168C2684369D5
:100FA000C160426143600EBDCC0F00006302042D9E
:100FB000726F740003CF083F7E603960060070478F
:100FC00000B5FFF7E1FFFFF7DFFF00BDDE0F000018
:100FD0002000047069636B0057F826607047F60FB5
:100FE000000000000564657074684F49C91B47F82C
:100FF000046D8E08704712100000000006726465D0
:101000007074680047F8046D6E464849891B8E0865
:101010007047481000002002023E720040B440CFEA
:10102000704700B5FFF7A5FAFFF710FAFFF74AFA85
:1010300047F8046D4BF2004601228A40164302F045
:10104000ACF8FFF7FEF800BD7E100000200202722F
:101050003E0047F8046D40BC704700B5FFF789FAC1
:10106000FFF7E5F8FFF7BEF9036047F8046D4BF6AC
:10107000004601229A40164302F08FF800BD9C10F2
:10108000000020020272400047F8046D009E704785
:1010900000B5FFF76EFA02F0A2FD00BDC01000001F
:1010A0002002057264726F7001B0704700B5FFF7DF
:1010B00060FA47F8046D4BF2010602F06EF800BDCD
:1010C000D4100000200005727069636BB6006E4496
:1010D0003668704700110000000004726F6C6C00ED
:1010E000002E01D140CF7047B0003958C019031FFE
:1010F0001A6802600438013EF9D104370E007047C7
:10110000301100000000052D726F6C6C002E01D1B3
:1011100040CF7047386839464A680A600431013E5A
:10112000FAD1086040CF70478C0200208C03002069
:101130004A110000620203616E6401CF06407047ED
:1011400047F8046D44F20006D0E066110000620228
:101150000362696301CFB0430600704747F8046D2E
:1011600044F28036BEE0801100006202026F72001D
:1011700001CF0643704747F8046D44F20036B5E0EE
:101180009A110000620203786F7201CF46407047E7
:1011900047F8046D44F24006A8E0B2110000620274
:1011A000012A01CF4643704747F8046D44F24036A8
:1011B0009CE0E6110000610203636C7AB6FA86F6E1
:1011C000704700B5FFF742F947F8046D6F4EFFF71F
:1011D00079F90E4356EA0146FFF7C2F956EA0326AB
:1011E00002F00AF800BDF6110000610003726F7290
:1011F0005FEA7606704708120000610003726F6CA8
:10120000B61956F1000670474012000062020761ED
:1012100072736869667401CF30410600704700B58B
:1012200047F8046D44F2001647F8046D41F20006D9
:10123000FFF716F941681F292AD91F21416027E0CD
:101240006A1200006202067273686966740001CF58
:10125000F0400600704700B547F8046D44F2C00640
:1012600047F8046D40F6000612E0A8130000620281
:10127000066C73686966740001CFB0400600704761
:1012800000B547F8046D44F2800647F8046D002667
:10129000FFF7E6F80168282903D040CF00F022F8D4
:1012A00000BD04374168FEF7CCFF002901D140CFD3
:1012B00000BD1F290AD889010E430268D2001643D7
:1012C000FFF74EF91E4301F068FF00BD40CFFFF766
:1012D00047F947F8046D42F200061B021E4301F075
:1012E0005CFF00BD0FB5FFF7BBF80CE00FB5FFF7D3
:1012F000B7F80168062901D1FFF7F1FD8268282AB5
:1013000001D1FFF7ECFDFFF7E7F8016828291CD1B0
:1013100047F8046D466801F05DFB02CF002E40CF18
:1013200013D0B6F5804F01D1194E1CE0194A9642F0
:1013300001D1194E17E0B6F5864F01D1174E12E0D4
:10134000174A964201D1174E0DE0FFF7D9F8FFF783
:10135000B9F8C90082680E43164301F01EFFFEF77C
:1013600070FF0FBD0FB50E43816856EA0146FEF7C8
:1013700068FFFEF766FFFEF75AFFFFF733F80360DA
:1013800056EA032601F038FF0FBD000080F0B0FAE6
:10139000000010F040400000000090F0000050F00D
:1013A00080430000000030F0CC13000061020230E6
:1013B0003D00013EB641704700B500F0FDF800F079
:1013C0002CFEFEF73EFF7949816200BDF21300005A
:1013D000610203303C3E013EB641F643704700B522
:1013E00000F0EAF800F019FEFEF72BFF7049816269
:1013F00000BD18140000610202303C00F61770476F
:1014000000B500F0D9F847F8046D41F2C07600F05D
:1014100047FE6849816200BD2E140000600004741C
:101420007275650047F8046D0026F6437047421454
:10143000000060000566616C736547F8046D002666
:101440007047681400004202023E3D0001CFB042E6
:10145000EADA0026704747F8046D4DF6003647F883
:10146000046D4DF60026B3E08E1400004202023CEB
:101470003D0001CFB042D7DD0026704747F8046D2C
:101480004DF6004647F8046D4DF60056A0E0B21444
:1014900000004202013C01CFB042C5DB002670478C
:1014A00047F8046D4DF6002647F8046D4DF60036FA
:1014B0008EE0D61400004202013E01CFB042B3DC00
:1014C0000026704747F8046D4DF6005647F8046D46
:1014D0004DF600467CE0FC140000620203753E3DC0
:1014E00001CF861BB641F643704747F8046D4DF2B5
:1014F000003647F8046D4DF2002669E02215000021
:10150000620203753C3D01CF361AB641F64370477F
:1015100047F8046D4DF6000647F8046D4DF60016C9
:1015200056E046150000620202753C0001CF861BA2
:10153000B641704747F8046D4DF2002647F8046D38
:101540004DF2003644E06A150000620202753E006A
:1015500001CF361AB641704747F8046D4DF60016B4
:1015600047F8046D4DF6000632E08C15000062026B
:10157000023C3E0001CF811B361A0E43704747F8EC
:10158000046D4DF2000647F8046D21E0F4160000EA
:101590006202013D01CF361A013EB641704747F85D
:1015A000046D4DF2001647F8046D11E000D2000002
:1015B00000D3000000D5000000B5FEF747FFFEF79E
:1015C00077FEFEF77AFEFEF77DFEFEF785FF00BD93
:1015D00000B5FEF745FFFEF76BFEFEF76EFEFEF769
:1015E00085FF8268282A04D1FFF779FC39683E60BC
:1015F0000E4640CF016828291DD14168FF2907D830
:1016000047F8046D42F600060E43816809021AE0AD
:1016100047F8046D466801F0DDF902CF002E40CF97
:1016200009D047F8046D694E0E43816856EA0146B9
:1016300001F0E2FD0AE0FEF745FF47F8046D44F2D1
:101640008026C90016430E4301F0A7FDFEF7F9FD01
:10165000FEF7F7FD866240CF00BD0FB55C48816A9A
:10166000002933D047F8046D866A00218162310A6F
:10167000D52901D140CF0FBDFEF7D9FDFEF7B2FE4F
:101680000360D22903D1534E00F00AFD0FBDD329C8
:1016900005D1504E00F004FD00F015FD0FBD0236DF
:1016A00001F07BFD47F8046D42F2000600F00FF8F0
:1016B00000F009FD47F8046D4EF2000601F06DFDE3
:1016C00047F8046D42F2000600F001F80FBD00B5C6
:1016D000FEF7BCFEFEF72BFF016809020E4301F086
:1016E0005CFD00BD00B5816A090AD52901D1FEF76C
:1016F000A8FD00BD121700006202036D696E01CFE4
:10170000B04200DC0600704747F8046D4DF6003625
:101710002DE0301700006202036D617801CFB04206
:1017200000DB0600704747F8046D4DF600461EE0EA
:1017300050170000620204756D61780001CFB0425D
:1017400000D30600704747F8046D4DF600060EE022
:10175000D8170000620204756D696E0001CFB042B7
:1017600000D80600704747F8046D4DF2003600B50A
:10177000FEF776FE01688268914203D140CFFEF702
:1017800066FD00BD062A01D1FFF7A9FB01682829E3
:1017900001D1FFF7A4FBFEF7CAFEFEF79DFEC900CC
:1017A000026847F8046D44F280260E43164301F0A8
:1017B000F4FC01F0F2FC47F8046D44F200660E43BD
:1017C000164301F0EAFCFEF742FD00BD000FB0F148
:1017D0002800002080410000161800000000046D61
:1017E0006F76650007B5310040CF320040CF002949
:1017F0000FD0B2420DD006D3013E013A705C505476
:101800000139FBD105E03078107001360132013921
:10181000F9D140CF07BD3818000000000466696C9C
:101820006C00300040CF310040CF002902D0013998
:101830007054FCD140CF70477A180000200201405C
:101840003668704747F8046D46F6000600B5FEF7A7
:10185000FDFD0368282B08D143687C21194009014C
:101860000E437C218B43FEF776FDDB001E43FEF723
:1018700077FE1E4301F091FC00BDD218000020024B
:10188000012103CF30600E00704747F8046D46F227
:10189000000600B5FEF7E4FD0368282B09D1436874
:1018A0007C21194009010E437C218B43FEF753FD37
:1018B0000360DB001E438368282B02D1C368FEF758
:1018C0003EFD1E4301F069FCFEF7BBFCFEF7B9FCD0
:1018D00000BD081900002002022B210003CF32684E
:1018E000121832600E00704700B5FEF7B9FDFFF721
:1018F000C1FAFFF7A7FFFFF747FB00F020FBFFF758
:10190000EEFAFFF7C2FF00BD4C190000200202688A
:1019100040003688704700B5FEF798FD47F8046D23
:1019200048F600060368282B08D143683E21194079
:1019300049010E433E218B43FEF70DFDDB001E43A4
:10194000FEF70EFE1E4301F028FC00BDA6190000A4
:1019500020020268210003CF30800E00704700B5DE
:10196000FEF77EFD47F8046D48F200060368282B59
:1019700009D143683E21194049010E433E218B4362
:10198000FEF7E9FC0360DB001E438368282B02D1CD
:10199000C368FEF7D4FC1E4301F0FFFBFEF751FCC9
:1019A000FEF74FFC00BDDC190000200203682B216C
:1019B00003CF3288121832800E00704700B5FEF750
:1019C0004FFDFFF757FAFFF7A6FFFFF7DDFA00F02C
:1019D000B6FAFFF784FAFFF7C2FF00BD201A000035
:1019E0002002026340003678704700B5FEF72EFDF6
:1019F00047F8046D47F600060368282B08D14368B2
:101A00001F21194089010E431F218B43FEF7A3FCC0
:101A1000DB001E43FEF7A4FD1E4301F0BEFB00BD2C
:101A20007A1A000020020263210003CF30700E00FA
:101A3000704700B5FEF714FD47F8046D47F2000645
:101A40000368282B09D143681F21194089010E43DF
:101A50001F218B43FEF77FFC0360DB001E4383687E
:101A6000282B02D1C368FEF76AFC1E4301F095FBE8
:101A7000FEF7E7FBFEF7E5FB00BDB01A0000200211
:101A800003632B2103CF3278121832700E00704797
:101A900000B5FEF7E5FCFFF7EDF9FFF7A6FFFFF74E
:101AA00073FA00F04CFAFFF71AFAFFF7C2FF00BD15
:101AB000F01A0000200204626973210003CF32682B
:101AC000024332600E00704700B5FEF7C9FCFFF715
:101AD000D1F9FFF7B7FEFFF757FA47F8046D44F264
:101AE0000036FFF703FCFFF7FAF9FFF7CEFE00BD63
:101AF000301B0000200204626963210003CF3268BA
:101B0000824332600E00704700B5FEF7A9FCFFF774
:101B1000B1F9FFF797FEFFF737FA47F8046D44F283
:101B20008036FFF7DFFBFFF7DAF9FFF7AEFE00BD07
:101B3000701B0000200204786F72210003CF32680E
:101B4000424032600E00704700B5FEF789FCFFF797
:101B500091F9FFF777FEFFF717FA47F8046D44F2A3
:101B60004006FFF7C3FBFFF7BAF9FFF78EFE00BD93
:101B7000A61B0000200204626974400001CF366891
:101B8000064018BF4FF0FF36704700B5FEF768FCFF
:101B9000FFF758FE47F8046D44F20006FFF7A6FB76
:101BA000FFF71DFC00BDE61B00002002056862690E
:101BB000732103CF3288024332800E00704700B594
:101BC000FEF74EFCFFF756F9FFF7A5FEFFF7DCF92D
:101BD00047F8046D44F20036FFF788FBFFF77FF902
:101BE000FFF7BDFE00BD261C0000200205686269EB
:101BF000632103CF3288824332800E00704700B5E4
:101C0000FEF72EFCFFF736F9FFF785FEFFF7BCF96C
:101C100047F8046D44F28036FFF764FBFFF75FF985
:101C2000FFF79DFE00BD661C000020020568786F6E
:101C3000722103CF3288424032800E00704700B5D7
:101C4000FEF70EFCFFF716F9FFF765FEFFF79CF9AC
:101C500047F8046D44F24006FFF748FBFFF73FF9F1
:101C6000FFF77DFE00BD9C1C000020020568626934
:101C7000744001CF3688064018BF4FF0FF367047DA
:101C800000B5FEF7EDFBFFF746FE47F8046D44F2A2
:101C90000006FFF72BFBFFF7A2FB00BDDC1C0000DA
:101CA000200205636269732103CF327802433270E8
:101CB0000E00704700B5FEF7D3FBFFF7DBF8FFF728
:101CC00094FEFFF761F947F8046D44F20036FFF720
:101CD0000DFBFFF704F9FFF7ACFE00BD1C1D000073
:101CE000200205636269632103CF32788243327038
:101CF0000E00704700B5FEF7B3FBFFF7BBF8FFF728
:101D000074FEFFF741F947F8046D44F28036FFF79F
:101D1000E9FAFFF7E4F8FFF78CFE00BD5C1D000058
:101D200020020563786F722103CF3278424032700F
:101D30000E00704700B5FEF793FBFFF79BF8FFF727
:101D400054FEFFF721F947F8046D44F24006FFF70F
:101D5000CDFAFFF7C4F8FFF76CFE00BD921D00003E
:101D6000200205636269744001CF3678064018BFCF
:101D70004FF0FF36704700B5FEF772FBFFF735FEF8
:101D800047F8046D44F20006FFF7B0FAFFF727FBAF
:101D900000BD201E000000000768666C61736821AA
:101DA000300040CF310040CF584B98421ED3584BA3
:101DB0001940994219D010F00102002A16D1028868
:101DC0009A4213D110F10060524A534B1360534BA7
:101DD0001360534A012313600180524A136813F0C1
:101DE0000103FBD14E4A80231360704700F0ADFC25
:101DF0002A57726F6E672061646472657373206F17
:101E000072206461746120666F72207772697469F0
:101E10006E6720666C61736820210A0002F039BC8D
:101E20006E1E000000000E666C617368706167656D
:101E30006572617365000FB5300040CF334B984237
:101E400014D3344A344B1360344B1360344A0223A6
:101E50001360354A1060324A42231360314A1368D6
:101E600013F00103FBD12E4A802313600FBDEC1E3B
:101E7000000000000A6572617365666C617368003A
:101E8000224872B629494FF6FF72038893421CD04C
:101E900047F8046D060047F8046D00F056FC104545
:101EA0007261736520626C6F636B20617420200027
:101EB00000F0BEFC00F049FC0C2066726F6D2046FD
:101EC0006C6173680A00FFF7B6FF02308842DCD10C
:101ED00000F03BFC1246696E69736865642E2052FF
:101EE0006573657420210A0002F06DBC301F00008C
:101EF00000000E6572617365666C61736866726F6F
:101F00006D0072B6300040CFBBE70000005000000B
:101F1000FFFF00000420024023016745AB89EFCD9D
:101F2000102002400C20024014200240000001005A
:101F3000661F00006202012B01CF3618704700B502
:101F4000FEF78EFA47F8046D43F2000647F8046D79
:101F5000C94E47F8046D41F600068168282917D15B
:101F6000FEF7BDFF14E00C2000006202012D01CF3E
:101F7000861B704700B5FEF773FA47F8046D43F609
:101F8000000647F8046DBD4E47F8046D41F6002683
:101F9000FEF7A2FA0168282927D14168FF290CD849
:101FA00040CF40CFFEF7ACFA0E43816809020E43E2
:101FB00001F0F3F8FEF745F900BD47F8046D0E0097
:101FC00000F008FD02CF002E40CF0ED040CF0437E6
:101FD0000E43816856EA0146FEF733F9FEF7C0FA70
:101FE00056EA032601F008F900BD04370437FEF76E
:101FF00069FA89018268D2000E431643FEF721F97F
:10200000FEF7AEFA1E4301F0C8F800BD2420000020
:10201000610202312D00013E704747F8046D41F620
:1020200040663DE03C200000610202312B00013699
:10203000704747F8046D41F6404631E054200000F7
:10204000610202322D00023E704747F8046D41F6EE
:10205000806625E06C200000610202322B0002360F
:10206000704747F8046D41F6804619E0862000006D
:1020700061020563656C6C2B0436704747F8046D8C
:1020800041F600560CE0B82000006102066E65675C
:10209000617465007642704747F8046D44F240264B
:1020A00000B5FEF7D3F90168C9000E43FEF758FAF0
:1020B0001E4301F072F800BDD02000006102036EE3
:1020C0006F74F643704747F8046D44F2C036E7E793
:1020D000E82000006102037368727608704747F8D1
:1020E000046D40F64006DBE7F82000006102037350
:1020F000686C7600704706E00E2100006102023233
:102100002A007600704747F8046D4026C8E726216C
:10211000000061020563656C6C73B600704747F898
:10212000046D8026BCE73E210000610202322F00D0
:102130007610704747F8046D41F24006B0E77E2103
:102140000000610203616273F01736184640704761
:1021500000B5FEF77BF947F8046D00260168C90059
:102160000E43FEF7FDF91E4301F017F847F8046D22
:102170004DF2005601F011F8FFF78EFF00BD9C21D3
:102180000000420005752F6D6F6401CF3100B0FB78
:10219000F6F67143401A043F38607047BA210000D8
:1021A0004200042F6D6F640001CF310090FBF6F602
:1021B0007143401A043F38607047CE21000042004E
:1021C000036D6F6400B5FFF7EFFF40CF00BD0E2237
:1021D00000006202012F01CF90FBF6F6704700B5B8
:1021E000FEF73EF9FEF76EF9FEF776F947F8046D53
:1021F000234E01680E43816856EA0146FEF721F836
:10220000FEF7AEF956EA032600F0F6FF00BD2222E3
:1022100000006100046576656E00012030403618CC
:1022200070473A220000810004626173650047F83C
:10223000046D144E70470A00000050220000000098
:102240000662696E617279000E4802210160704772
:1022500066220000000007646563696D616C0948CF
:102260000A21016070478822000000000368657839
:102270000448102101607047000010F10000B0F127
:10228000F0F090FBFC4F0020A422000081000968C0
:102290006F6F6B2D656D697447F8046D7D4E7047E7
:1022A0008E230000C0220000810008686F6F6B2D34
:1022B0006B65790047F8046D774E7047B4230000D2
:1022C000DE22000081000A686F6F6B2D656D6974F6
:1022D0003F0047F8046D714E7047DE230000FA227C
:1022E0000000810009686F6F6B2D6B65793F47F8BF
:1022F000046D6B4E70470A24000018230000810013
:102300000A686F6F6B2D70617573650047F8046D17
:10231000644E7047764700002E23000000000465DD
:102320006D6974000FB55B4800F026F80FBD4223BD
:1023300000000000036B65790FB5574800F01CF8EA
:102340000FBD54230000000005656D69743F5348BC
:1023500000688746662300000000046B65793F0033
:102360004F48006887467C230000000005706175B7
:1023700073654C480068874600688746A2230000C2
:1023800000000B73657269616C2D656D697400B531
:1023900000F025F8002E40CFFAD0434A167040CF07
:1023A00000BDCA23000000000A73657269616C2DCC
:1023B0006B65790000B500F028F8002E40CFFAD008
:1023C00047F8046D384A167800BDF8230000000075
:1023D0000C73657269616C2D656D69743F0000B5A1
:1023E000FFF7C7FF47F8046D0026304801688020DA
:1023F000014000D0F64300BD3E24000000000B73F6
:10240000657269616C2D6B65793F00B5FFF7B1FFAF
:1024100047F8046D0026254801682020014000D0BF
:10242000F64300BD22492348086023492348086039
:102430002349462008602349234808607047CC247C
:102440000000000004696E69740000B5FFF7EAFF40
:1024500000F07BF93A4D6563726973702D537465B2
:102460006C6C6172697320524120322E332E3920F8
:10247000666F722053544D333246313033206279C7
:10248000204D61747468696173204B6F63680A0042
:1024900000BD0000F84F0020F44F0020F04F002056
:1024A000EC4F0020E84F0020043801400038014084
:1024B000181002403D40000004080140B004000034
:1024C000083801400C3801400C200000F0240000C6
:1024D0000000076365787065637400B5386801B4FF
:1024E0000130386000F00BF801BC067040CF00BD31
:1024F000662500000000066163636570740000B526
:1025000002CF01390022FFF717FF300040CF7F28AC
:1025100009D0202819D2092816D00A281FD00D2842
:102520001DD00828EFD1002AEDD000F00EF90308E5
:102530002008002AE7D0885C013A80230340E2D0DB
:1025400040230340F5D0DEE72020B242DBD247F83B
:10255000046D0600FFF7E6FE01328854D3E716004B
:1025600000F0A2F800BD7825000040000374696205
:1025700047F8046D294E70478E2500008100033E08
:10258000696E47F8046D264E704700000000B425C0
:10259000000082000E63757272656E742D736F7524
:1025A0007263650047F8046D1E4E7047000000001E
:1025B000C4000020D0250000000009736574736F0B
:1025C00075726365174802CF0660416040CF70475F
:1025D000EE250000000006736F757263650047F812
:1025E000046D104E043F70683860366870472826C6
:1025F000000000000571756572790FB5084800216B
:102600000160FFF7B5FF47F8046D47F8046DC82671
:10261000FFF775FFFFF7D6FF0FBD0000C4000020D5
:10262000E44F0020DC4F0020762600000000076306
:102630006F6D706172650FB5310040CF01CF884278
:1026400002D040CF00260FBD02CF002810D00138A5
:102650000A5C335C412A02D35B2A38BF2032412B0B
:1026600002D35B2B38BF20339A42EED000260FBD39
:102670000026F6430FBD8A260000000002637200A8
:1026800000B500F062F8010A00BD9C2600000000C1
:1026900002626C0047F8046D20267047B0260000E7
:1026A000000005737061636547F8046D202639E604
:1026B000D02600000000067370616365730000B5EA
:1026C000002E03DDFFF7F0FF013EFBD140CF00BD40
:1026D000E02600005000065B636861725D0005E063
:1026E000F8260000000004636861720000B501F084
:1026F0005FFC40CF367800BD082700005004012859
:1027000047F8046D292606E0222700005004015CEA
:1027100047F8046D002600B501F054FC043740CFA3
:1027200000BD662700001000022E22009B4800B565
:1027300047F8046D060000F05EFA47F8046D2226A3
:1027400001F040FC00F068FD00BD0AB447F8046DDC
:102750007646013E33780121013319405B181EEBA8
:10276000030E0ABC39E08C2700001000026322002F
:102770008B48DCE747F8046D7646013E337801214B
:10278000013319405B181EEB030E7047B62700009B
:102790001000027322008348C9E747F8046D7646AB
:1027A00047F8046D013E36780121731C19405B180F
:1027B0001EEB030E7047CE270000000005636F7507
:1027C0006E74013647F8046D013E36787047F6277F
:1027D0000000000005637479706501B53078002849
:1027E00007D0013647F8046D3678FFF79BFD0138B6
:1027F000F7D140CF01BD2428000000000474797097
:102800006500310040CF300040CF00B5002908D02E
:10281000002247F8046D865CFFF784FD0132914287
:10282000F7D100BD5E2800000000046865782E0026
:1028300007B5310040CF20200F22043847F8046D3F
:102840000E00C6401640092E01D9373600E030365A
:10285000FFF768FD0028F0D1FFF726FF07BD6E28BF
:102860000000000003682E731FB54F4C0EE07E2859
:102870000000000003752E731FB54C4C06E0FC28C9
:1028800000000000022E73001FB5494C4949C91BC6
:102890008908494A106803B40A201060FFF755FF01
:1028A00008537461636B3A205B0047F8046D0E00B7
:1028B00001F057FDFFF749FF025D200003BC3E4ACF
:1028C000106000290AD03D4A106806B447F8046D2C
:1028D0000600A04706BC043A0139F5D1FFF735FFE1
:1028E0000620544F533A200047F8046D3600A047A5
:1028F000FFF72BFF04202A3E0A001FBDC02900005D
:10290000000005776F72647300B5FFF71EFF010AC0
:1029100000F0D5FEFFF719FF094164647265737317
:102920003A2047F8046DFFF783FFFFF70EFF064CD0
:10293000696E6B3A200047F8046D3668FFF778FF40
:10294000FFF703FF07466C6167733A2047F8046D91
:10295000B688FFF76DFFFFF7F8FE06436F64653A30
:102960002000B01D00F0E4FE47F8046D0600FFF7FC
:102970005FFFFFF7EAFE064E616D653A200047F8FB
:10298000046D0636FFF729FFFFF7DFFE010A00F0AE
:10299000ADFE300040CFBDD040CF00BD4A27000083
:1029A000742700009A2700003128000053430000DC
:1029B000634300008C020020FC4F002088020020AE
:1029C000242B000000000D3132626974656E636F64
:1029D00064696E670FB5FF2E04D847F8046D5FF089
:1029E000FF360FBD16F0FF10B0420ED14FF6FF714B
:1029F0000840310C814208D116F0FF0656F480568B
:102A000047F8046D5FF0FF360FBD16F0FF20B042AF
:102A10000FD14FF6FF710840310C814209D1360ABF
:102A200016F0FF0656F4005647F8046D5FF0FF36C7
:102A30000FBDFF2231001140300A1040884210D1F2
:102A4000300C104088420CD1300E1040884208D122
:102A500016F0FF0656F4405647F8046D5FF0FF3657
:102A60000FBD300000210131001850F100007FF04F
:102A70007F020240802A05D01F29F4D347F8046D55
:102A800000260FBD0829F9D3060036F0800611F0A4
:102A90000100C001064311F00E00C002064311F010
:102AA00010008005064347F8046D5FF0FF360FBD48
:102AB00047F8046DDFF854665FF4704110EA0102D4
:102AC000120116435FF4006110EA0102D2031643BB
:102AD0005FF4E06110EA010212011643FF2110EADF
:102AE000010216431E4387E347F8046DDFF82066B2
:102AF0005FF0704110EA0102120B16435FF00061B3
:102B000010EA0102520816435FF0E06110EA010288
:102B1000120B16435FF47F0110EA0102120C1643F8
:102B20001E4369E38A2B0000000010726567697319
:102B30007465726C69746572616C2C000FB533003A
:102B400040CF1B02FF2E05D856F400561E4300F05E
:102B500024FB0FBDFFF73EFF002E40CF06D0DFF86D
:102B6000B40506431E4300F047FB0FBDF643FFF7D5
:102B700031FF002E40CF06D0DFF89C0506431E43F0
:102B800000F03AFB0FBDF6430BE0EA2B000000001B
:102B9000096D6F76776D6F76742C0FB5330040CF6B
:102BA0001B02300040CFFFF783FF4FF6FF7110EAA2
:102BB000014001D0FFF798FF0FBD0FB5013630007F
:102BC00040CF0023FFF774FFFFF78EFF06E00FB53D
:102BD000013647F8046D0026FFF7B0FF47F8046D93
:102BE00044F2807600F0D9FA0FBD502C00000000AE
:102BF0000563616C6C2C0FB5330000F05AFE300099
:102C000040CF1B1A043BDFF814151940002906D0E9
:102C1000DFF80C25914202D0BDE80F40D7E740CF46
:102C20005B08DFF8000540F2FF7119400843DB0A3A
:102C300040F2FF311940090408439B0A13F00101D7
:102C40008906084347F8046D060000F0D5FA0FBD69
:102C5000862C00000000086C69746572616C2C00A1
:102C600008B547F8046D4FF6470600F096FA47F8A6
:102C7000046D46F6045600F090FA47F8046D0626F7
:102C8000FFF75CFF08BDAA2C000000000663726518
:102C90006174650000B500F033F842F6C740804724
:102CA00047F8046DBEF1010600BDF22C00002000C3
:102CB00005646F65733E42F6C740804747F8046D70
:102CC000BEF10106704747F8046DBEF10106DFF85A
:102CD00058241368DFF8541409680220084000D013
:102CE000023102311160FFF768FF136000F0C4F990
:102CF00000BD342D00000000073C6275696C6473F0
:102D000000B500F06BFB00F0D4FD0220064040CF80
:102D100004D047F8046D362600F03FFA47F8046DFA
:102D20004BF2005600F039FA47F8046D0A2600F01D
:102D3000A6FA00BD402D00005000035B275D03E0B4
:102D4000582D00000000012700B501F031F900F016
:102D500045FD300040CF00BD8E2D000030000870D2
:102D60006F7374706F6E650000B5FFF7EDFF47F885
:102D7000046D060039683E600E46FFF771FFFFF7ED
:102D80006FFF47F8046DEA4EFFF735FF00BDE42DF5
:102D90000000000007696E6C696E652C00B54BF28F
:102DA00000514BF6005244F270733088884208D0CC
:102DB000904208D0984206D047F8046D060000F013
:102DC000ECF90236F1E740CF00BD0EB44BF60052ED
:102DD00044F2707301880230914201D09942F9D1D6
:102DE0000EBC7047FA2D00000000047265742C00C0
:102DF00047F8046D4BF60056CFE1082E0000300076
:102E0000046578697400F3E7202E00003000077233
:102E100065637572736547F8046DC44E3668EAE6FB
:102E2000382E0000810005737461746547F8046DE5
:102E3000C04E7047000000004A2E00000000015DF7
:102E4000BC480021C943016070475A2E00001000A1
:102E5000015BB8480021016070477A2E0000000035
:102E6000013A00B5B448076000F0B8FAB148012152
:102E70000160B2480021016000BDEC2E0000300866
:102E8000013B00B5AC480168B9420ED0FFF75DFCCC
:102E90001520537461636B206E6F742062616C61E6
:102EA0006E6365642E0A01F0F4BBA2480068411C01
:102EB00010D00B2805D847F8046D40F6200600F026
:102EC0000AF947F8046D44F2707600F066F901F0F3
:102ED000E6FA05E047F8046D4BF6005600F05DF9A0
:102EE00000F0CAF893480021016000BD002F0000E7
:102EF00000000765786563757465300040CF8746CC
:102F0000182F0000100009696D6D656469617465B2
:102F100047F8046D1026DEE02E2F000050000669F1
:102F20006E6C696E650047F8046D2026D3E0482F6B
:102F3000000010000B636F6D70696C656F6E6C79CB
:102F400047F8046D3026C6E0622F000050000A30BA
:102F50002D666F6C6461626C650047F8046D4026F5
:102F6000B9E07C2F000050000A312D666F6C64615F
:102F7000626C650047F8046D4126ACE0962F0000B6
:102F800050000A322D666F6C6461626C650047F810
:102F9000046D42269FE0B02F000050000A332D66DA
:102FA0006F6C6461626C650047F8046D432692E0C3
:102FB000CA2F000050000A342D666F6C6461626C89
:102FC000650047F8046D442685E0E42F00005000BA
:102FD0000A352D666F6C6461626C650047F8046D9C
:102FE000452678E0FE2F000050000A362D666F6CF3
:102FF0006461626C650047F8046D46266BE018302A
:10300000000050000A372D666F6C6461626C6500C9
:1030100047F8046D47265EE0483000000000086372
:103020006F6E7374616E740000B500F0D7F9FFF72E
:1030300017FE47F8046D44F2707600F0AEF8FFF723
:103040008CFF00F019F800BD6A3000000000093262
:10305000636F6E7374616E7400B500F0BFF9396808
:103060003E600E46FFF7FCFDE1E7C63000000000C1
:1030700006736D756467650000B52B4801682A4AC0
:1030800091421AD202390A882D4B9A4204D147F84C
:10309000046D2C4E00F081F800F06EF82A480068AC
:1030A00047F8046D06002949096804311E4A13686F
:1030B000116000F072F8136000BD00F05DF847F891
:1030C000046D002608E050310000000008736574AC
:1030D000666C6167730000B513480168124A91423B
:1030E00005D2194801683143016040CF00BD32006C
:1030F00040CF1648006804300188114B994201D135
:10310000110000E01143018000BD0000000040F20A
:103110000000C0F200005FF000007FF00100C0FF7F
:103120000000C0FF00F800F00000002014000020A4
:10313000A2430000D84F0020100000205C000020B7
:10314000FFFF00000000000020000020040000201D
:103150006C310000410007616C69676E6564012095
:103160003040361802203040361870479031000049
:10317000000005616C69676E00B58B48016802202C
:10318000014004D047F8046D002600F006F800BDA9
:10319000D4310000000002682C000FB5B6B283489D
:1031A0000168002902D0013100D001607E48016829
:1031B0007D4A914205D247F8046D0E00FEF7F0FDFE
:1031C00002E0320040CF0A8047F8046D022600F08A
:1031D00056F80FBDEE3100000000012C00B547F895
:1031E000046DFFF7DAFF360CFFF7D7FF00BD0A3298
:1031F00000000000033E3C2C00B547F8046D360C7F
:10320000FFF7CBFFFFF7C9FF00BD723200000000DF
:1032100007737472696E672C07B5FF21314040CF88
:10322000300040CF002905D147F8046D0026FFF794
:10323000B4FF07BD47F8046D067836020E43FFF76A
:10324000ACFF0130013902290AD347F8046D4678F2
:10325000360202781643FFF7A0FF02300239F2E788
:10326000002900D107BD47F8046D0678FFF795FFE8
:1032700007BDCC320000000005616C6C6F744A48D9
:103280000168494A91420FD2320040CF8918484A1A
:10329000914219D3FFF759FA0B466C6173682066A7
:1032A000756C6C0A01F0F5B9320040CF8918414ABB
:1032B0001268914208D3FFF748FA0952616D2066FF
:1032C000756C6C0A01F0E5B901607047F0320000DE
:1032D000000009666F7267657472616D00B500F079
:1032E00025F831483449016034483549016000BD52
:1032F0001833000000000D636F6D70696C65746FAA
:1033000072616D3F47F8046D002627480068264922
:10331000884248D3F64370473833000000000C63FE
:103320006F6D70696C65746F72616D001E48006826
:103330001D49884211D37047CC33000000000E6352
:103340006F6D70696C65746F666C617368001648A8
:1033500000681549884200D2704718481949026828
:103360000B680A6003601048174902680B680A601E
:10337000036010480068834215D300B5FFF7E5F9F4
:1033800023205661726961626C657320636F6C6C97
:1033900069646520776974682064696374696F6E15
:1033A0006172790A00BD704700000020D84F0020EC
:1033B00000000100240000208C03002004000020F5
:1033C000500100001C00002018000020B63400004E
:1033D00000000828637265617465290000B500F07B
:1033E000E7FD002E0ED1FFF7B0F91520437265619D
:1033F0007465206E65656473206E616D6520210AB9
:1034000001F047B9386847F8046D043F386000F0B0
:103410009EF940CF002E40CF11D0386847F8046D98
:10342000043F3860FFF791F9095265646566696E7B
:103430006520FFF7E6F9FFF788F9022E2000FFF775
:103440009BFE00F036FA8E4800688D4988421CD2F7
:103450008C480021016047F8046D0626FFF70FFF36
:10346000FDF7A8FDFFF7D8FE874801680A68874B7B
:103470009A4207D1824A1368116047F8046DFFF73A
:10348000ADFE1360066040CF10E07F4847F8046D42
:103490000668FFF7A3FE47F8046D7D4EFFF77DFE3B
:1034A0007948310040CF0160FFF7B6FE74480168EB
:1034B0007848016000BDCE340000000008766172DB
:1034C0006961626C650047F8046D012613E0E6341B
:1034D0000000000009327661726961626C6547F82C
:1034E000046D022607E0C03500000000096E766119
:1034F000726961626C6500B5FFF770FF6048016832
:103500005F4A914234D20F200640B20062480168FF
:10351000891A624A91420BD2FFF717F90F4E6F7466
:1035200020656E6F7567682052414D0A01F0B1B891
:10353000016047F8046D0E00FFF792FB47F8046D39
:1035400044F27076FFF729FE300040CF02000028D9
:1035500005D00E600431FFF741FE0138F9D147F87C
:10356000046D80261643FFF7B6FDFFF785FD00BD0D
:1035700000F09FF90220064040CF04D147F8046DC7
:103580003626FFF70AFE47F8046D454EFFF734FE76
:1035900047F8046D434EFFF72FFE47F8046D44F2E1
:1035A0007076FFF7FAFD300040CF002803D0FFF718
:1035B00015FE0138FBD1FFF7D0FCFFF75DFD00BD24
:1035C000A83600000000076275666665723A00B5AD
:1035D000FFF704FF01203040361802203040361833
:1035E00027480168264A914228D22B480168891B46
:1035F0002A4A91420BD2FFF7A8F80F4E6F7420654C
:103600006E6F7567682052414D0A01F042B8016043
:1036100047F8046D0E00FFF723FB47F8046D44F2F2
:103620007076FFF7BAFDFFF7D9FD47F8046D40F259
:103630004016FFF750FDFFF71FFD00BD00F039F900
:103640000220064040CF04D147F8046D3626FFF72C
:10365000A4FD47F8046D124EFFF7CEFD47F8046D48
:10366000104EFFF7C9FD47F8046D44F27076FFF77E
:1036700094FDFFF704FEFFF770FCFFF7FDFC00BDB3
:10368000000000202000002004000020FFFFFFFFBA
:10369000FFFF000014000020240000208C03002005
:1036A0003E60043F02367E46D636000000000F64BE
:1036B000696374696F6E61727973746172744E4874
:1036C00000684D4947F8046D884201D24B4E70475F
:1036D0004B4E366870471037000000000E64696377
:1036E00074696F6E6172796E6578740003B53168C4
:1036F0004448814207D08879FF2804D00E0047F85B
:10370000046D002603BD47F8046D0026F64303BD93
:103710004237000000000A736B6970737472696E3F
:1037200067003178013101220A4089187618704704
:1037300006B40178013101220A408918401806BCFC
:1037400070475437000000000466696E64002E481C
:103750000068874670370000810009686F6F6B2D25
:1037600066696E6447F8046D284E70477E37000026
:10377000143800000000062866696E64290030B520
:1037800000220023350040CF340040CFFFF797FFE1
:103790001F48B188884217D047F8046D0636FFF7F6
:1037A00010F847F8046D260047F8046D2E00FEF768
:1037B00042FF002E40CF07D0B01DFFF7B9FF020037
:1037C0000B000D48824204D2FFF790FF300040CF3B
:1037D000DED0160047F8046D1E0030BD00B5310084
:1037E000386803B4FFF7B3FF03BC3A68002A01D17D
:1037F00000F003FF00BD00000000002050010000A9
:1038000004000020FFFFFFFFD44F0020D44F002012
:10381000FFFF00006E380000000006636A756D70DF
:103820002C00320040CF310040CF8B1B043BDA49E3
:10383000194000290DD0D94881420AD0FEF785FFF2
:103840000D4A756D7020746F6F206661720A00F00A
:1038500020BF5B10FF210B40134330001E0000B55A
:10386000CF4A13681060FFF798FC136000BDA638BC
:1038700000000000056A756D702C310040CF3000EB
:1038800040CF0B1A043BC7491940002902D0C64A51
:103890009142D3D15B10C54A134053F4604347F8BB
:1038A000046D1E00DBE7BC38000000000468657290
:1038B000650047F8046DBA4E36687047F23900006B
:1038C00000000D666C6173687661722D68657265C3
:1038D00047F8046DB64E3668704700B547F8046D7A
:1038E00042F60066FFF759FC47F8046D4CF6407647
:1038F000FFF753FC00BDDCE700B500F03AF839688B
:103900003E600E4647F8046D4DF20016FFF789FF42
:1039100000BD00B500F02DF839683E600E4647F84E
:10392000046D4DF20076FFF77CFF00BD00B5FFF798
:10393000D4FF00F01EF839683E600E4647F8046D6B
:103940004DF20006FFF76DFF00BD00B500F011F865
:1039500039683E600E46FFF790FF00BD00B5FFF7E7
:10396000BCFFFFF7A6FF47F8046D0226FFF787FCB0
:1039700000BD00B5FFF79DFF47F8046D0226FFF775
:103980007EFC00BD00B5FFF794FFFFF776FF00BD9A
:1039900000B5FFF78EFF47F8046D4DF20006FFF704
:1039A00040FF00BD00B5FFF784FF47F8046D4DF2FE
:1039B0000016FFF736FF00BD00B5FCF747FDFCF72A
:1039C00077FCFCF77AFCFCF77DFC8168282901D1A3
:1039D000FCF782FDFCF776FD47F8046D42F6000621
:1039E00009020E43FFF7D9FBFCF72BFCFCF754FC54
:1039F00000BD1E3A00003000047468656E00052E9C
:103A000001D140CFBEE7F1B200296DD100B5FFF77B
:103A100050FF39683E600E46FFF703FF00BD3A3A9B
:103A20000000300004656C73650000B500F036F8E6
:103A3000FCF7D7FDFFF7E3FF00BD903A000030062A
:103A40000269660000B5FFF789FF47F8046D4DF283
:103A5000000600BD00B5FCF78CFDFDF743FE816A52
:103A6000002907D002B4FCF717FCFFF782FF47F8E4
:103A7000046D40BDFFF7A0FFFFF71BFF47F8046D83
:103A80000226FFF7FCFB47F8046D4DF2000600BD6F
:103A9000AA3A0000300005616865616400B5FFF76F
:103AA00068FF47F8046D052600BDC43A00003000E9
:103AB000067265706561740000B500F05BF8FFF791
:103AC0009EFF00BD083B00003006057768696C6505
:103AD00000B5FFF7B7FFFCF784FD00BD00B5FFF7A9
:103AE000B9FFFCF77EFD00BDFEF72FFE1753747281
:103AF0007563747572657320646F6E2774206D61D1
:103B00007463680A00F0C5BD683B000030060575A7
:103B10006E74696C012EE7D140CF07E77047012E24
:103B2000E2D140CF00B5FDF7DDFD816A00290DD05F
:103B300002B4FCF7B1FBFFF71CFF39683E600E468C
:103B400047F8046D40BCFFF76CFE00BDFFF734FF83
:103B5000FFF70FFF39683E600E4647F8046D4DF2DF
:103B60000006FFF75EFE00BD7C3B000030000561F3
:103B70006761696E012EB7D140CFE6E6B43B000025
:103B8000300005626567696E00B5FFF7B4FE47F85F
:103B9000046D012600BD000001FFFFFF00FFFFFFD5
:103BA0000000002001F8FFFF00F8FFFFFF07000002
:103BB00024000020CE3B00002002016B47F8046D7A
:103BC000029E704747F8046D49F602060BE0FC3B85
:103BD00000002002016A47F8046D009E704747F814
:103BE000046D49F6000600B5FCF721FBFCF7FAFB73
:103BF00003601B021E43FFF7D0FA00BD283C000003
:103C00002002016947F8046D2600704700B547F8A7
:103C1000046D40F22006FCF70AFBFCF7E3FB0360AF
:103C20001E43FFF7BAFA00BD663C00003000056C89
:103C30006561766500B5754801683B00043F1A6808
:103C4000043B1A6008338B42F9D103B4FFF791FEAD
:103C500003BC330040CF04390B60016004390A68AB
:103C600001320A6000BD783C0000200006756E6CD1
:103C70006F6F700030BC7047B03C00003000052B07
:103C80006C6F6F70032E00D02EE740CF00B547F861
:103C9000046D5F4EFFF782F8FFF73BFE1AE014F168
:103CA0000044641BA41940CF2C44A4F10044704785
:103CB000F23C00003000046C6F6F7000032E00D0E7
:103CC00012E740CF00B547F8046D524EFFF766F893
:103CD000FFF712FE00F052F94C48310040CF01606E
:103CE00047F8046D4C4EFFF759F800BD0134AC4263
:103CF00070473A3D0000300202646F0000B547F89B
:103D0000046D464EFFF74AF84048016847F8046DD5
:103D10000E0047F8046D00260760FFF7ECFD47F83A
:103D2000046D032600BD00B500F02FF8ECE730B4B9
:103D3000340040CF350040CF7047203E00003002B5
:103D4000033F646F00B547F8046D344EFFF726F863
:103D500047F8046D44F2AC26FFF71FFA2B480168C0
:103D600047F8046D0E00FFF704FE013647F8046DB6
:103D7000012626480760FFF7BEFD47F8046D0326BD
:103D800000BD00B500F001F8E2E700B5FCF7F1FB7B
:103D9000FCF766FBFCF78CFAFCF78FFAFCF792FA5B
:103DA00047F8046D4BF23046FFF7F7F90168282910
:103DB00008D047F8046D40F20406C9000E43FFF72F
:103DC000ECF907E047F8046D466847F8046D0426EF
:103DD000FEF7B4FE8168282908D047F8046D40F248
:103DE0000506C9000E43FFF7D8F907E047F8046D50
:103DF000C66847F8046D0526FEF7A0FEFCF721FA19
:103E0000FCF71FFAFCF768FA00BD00000C00002068
:103E10009E3C0000EC3C0000743C00002E3D000085
:103E2000403E0000300004636173650000B5FCF79C
:103E3000A0FB47F8046D002647F8046D082600BD76
:103E4000563E00003000033F6F66714809E0013EB6
:103E5000B64140CF70471C3F00003002026F660041
:103E60006C48082E00D03FE640CF00B547F8046DFF
:103E70000600FEF793FFFFF77CFD39683E600E46B3
:103E8000013647F8046D092647F8046D4CF6407674
:103E9000FFF783F900BD082E00D025E640CF00B51E
:103EA000FCF7DEFAFCF704FAFCF707FAFCF70AFA6B
:103EB00047F8046D44F28026FCF70EFB0E430268BF
:103EC000282A1ED14268FF2A08D840CF47F8046D3F
:103ED00042F60006164309020E4314E047F8046D4B
:103EE0004668FEF777FD04CF002E40CF06D04A4E3D
:103EF000164356EA0146FFF77FF906E0FCF7E2FABF
:103F00000A00D2001643FFF748F9FCF79AF9FCF7CC
:103F1000E3F9B0E7300040CFB0427047523F0000B5
:103F2000300005656E646F66092E00D0DCE540CF79
:103F300000B540B440CFFFF71CFD39683E600E4627
:103F4000FFF730FD47F8046D40BC47F8046D0826C4
:103F500000BDA43F0000300007656E6463617365B7
:103F6000082E00D0C0E540CF00B547F8046D4CF6F0
:103F70004076FFF712F900F001F800BD00B53000FF
:103F800040CF00280DD003B401213140002903D0D7
:103F9000013EFFF7FDFC01E0FFF7F4FC03BC013834
:103FA000EFE700BDB83F0000000005746F6B656E61
:103FB00047F8046D202605E0204000000000057051
:103FC0006172736510B5FEF70AFB310040CF300017
:103FD00040CF124A12688418202E07D191420FD088
:103FE000835CB34202D101328418F7E7914207D0D3
:103FF000835C0132B342F9D18618361B013E01E0E1
:104000008618361B043F3C600448026010BD000067
:104010004E3E0000143F0000000FB0F1E44F0020BE
:104020005E4000000000056469676974CF4B1B683F
:10403000303E0BD30A2E0BD3073E0A2E06D3242E76
:1040400006D3203E0A2E01D3242E01D3002670472A
:104050009E42FBD247F8046D0026F6437047684144
:1040600000000000066E756D626572003FB531009C
:1040700040CF701E0126012204B4BC4B1B680024F3
:10408000002500293CD00130013902782D2A04D1C5
:1040900001B00022D24304B4F3E7232A01D10A235A
:1040A000EFE7242A01D11023EBE7252A01D10223CF
:1040B000E7E72E2A01D10226E3E72C2A36D047F87B
:1040C000046D1600FFF7B4FF002E40CF2BD047F849
:1040D000046D260047F8046D2E0047F8046D1E009D
:1040E00047F8046D00260FB4FCF74BFC0FBC3500FD
:1040F00040CF340040CF0022A419554140CFC0E743
:1041000004BC002A04D50022E443ED4301345541A8
:1041100033002600012B02D047F8046D2E0047F82B
:10412000046D1E003FBD01B000263FBD25000024E8
:1041300002260029E4D0425C01392E2AF9D047F842
:10414000046D1600FFF774FF002E40CFEBD0043F44
:104150003C6047F8046D1E000FB4FCF7C1FC0FBCB7
:10416000340040CF40CFE4E78A4100000000062E33
:104170006469676974000A2E01D230367047242EB4
:1041800001D23736704723267047C0410000000037
:1041900004686F6C6400330040CF754801783F2994
:1041A0000DD2013101704018012907D00138027881
:1041B00001300270013801390129F7D103707047CD
:1041C000E0410000000005686F6C643C330040CFA4
:1041D000674801783F2902D201310170435470478A
:1041E000F84100000000047369676E00002E01D4DE
:1041F00040CF70472D26CEE70C420000000002237E
:104200003E005B4806780130386070472442000069
:1042100000000366235310B5202400F008F8013C89
:10422000FBD110BD4642000000000266230000B52D
:1042300047F8046D4D4E3668FCF765FBFFF79BFFB2
:10424000FFF7C4FF00BD62420000000002235300DC
:1042500000B500F00AF8002EFBD138680028F8D12C
:1042600000BD8E4200000000012300B547F8046D38
:104270003E4E366847F8046D0026FCF750FCFCF70C
:10428000B0F940CFFFF777FFFFF785FF00BDA042F1
:1042900000000000023C23003548002101707047F7
:1042A000B2420000000002662E0047F8046D20268E
:1042B00004E000430000000003662E6E00B510B459
:1042C000340040CFFCF748FEFCF7A2FA47F8046D33
:1042D0000026FFF7E1FFFFF7BBFF40CF2C26FFF7DB
:1042E00075FF002C03D0FFF7A2FF013CFBD110BCEF
:1042F00040CFFFF77BFF47F8046D47F8046D1CE0E3
:104300001643000000000375642E00B5FFF7C4FFDC
:10431000FFF79EFF11E048430000000002642E00FA
:1043200000B5FCF719FEFCF773FAFFF7B5FFFFF7CE
:104330008FFFFCF723FEFFF759FFFFF762FFFEF741
:1043400060FAFEF7B1F900BD5A43000000000275A3
:104350002E0047F8046D0026D7E726450000000030
:10436000012E47F8046DF617DAE70000FC4F002035
:104370008400002030B5D74C2568002D01D13D00C8
:10438000256030BD30B5D34C3D00256030BD30B523
:10439000D04C0025256030BDCE4B1B68DB1B9B0835
:1043A000704700B5310040CFCB48084002D000F044
:1043B000A2F800BDC948084001D1FDF74EF932000E
:1043C00040CFFFF7D7FFC648084003D047F8046D39
:1043D000160000BDFFF7E0FF8020084006D1402016
:1043E000084009D00F200840834205D347F8046DE8
:1043F0001600FEF782FD00BDBA48084014D0FBF756
:10440000BAFE47F8046D160047F8046D0E0000F080
:1044100030F81000FEF7D9FC421CB3489047FFF774
:10442000B1FFFBF7B7FE00BDFBF7A5FE47F8046D33
:10443000160047F8046D0E0000F01BF8FBF72CFF88
:10444000FFF7A5FFA948084001D1FCF792F847F80B
:10445000046D160010220A4002D0FEF74EFD00BD8A
:1044600020220A4002D0FEF799FC00BDFEF7C3FBF4
:1044700000BD0FB5320040CF330040CF9C480168EB
:10448000062907D2062041439A48401803801B0C96
:104490004380828096480168013101600FBD0FB5ED
:1044A0009348016806291FD8924801391DD047F862
:1044B000046D0E00FEF771FE47F8046D0688FEF7E6
:1044C0006CFE47F8046D4688FEF767FE47F8046DFA
:1044D0008688FEF762FE06300139EDD147F8046D9B
:1044E00041F20006FEF7F7FD0FBD47F8046D4026C8
:1044F000FEF7F1FD0FBD00B5300040CFFEF765FCC3
:104500000188023047F8046D068842881204164379
:1045100047F8046D868803B4FFF743FF03BC0630F9
:104520000139EFD100BD6E450000000008657661DD
:104530006C756174650000B5FEF751F801CF01B4E8
:1045400040B440CF6C48016802B400210160FEF71E
:1045500039F800F014F8684802BC016047F8046DAF
:1045600040BC01BC043F3860FEF72CF800BD6A4631
:104570000000000009696E7465727072657400B5A0
:104580005E4887420BD9FEF7E0F810537461636B05
:1045900020756E646572666C6F770A0079E0584822
:1045A00087420AD2FEF7D1F80F537461636B206F14
:1045B000766572666C6F770A6BE0FFF7DBFEFFF7DC
:1045C000F7FC002E02D1043740CF00BD386847F811
:1045D000046D043F3860FFF7BAF8310040CF320075
:1045E00040CF002A15D138683100FDF736F8FFF7C3
:1045F0003DFD320040CF002AC2D1FEF706F9FEF79A
:10460000A4F80C206E6F7420666F756E642E0A001D
:104610003FE03C4B1B68002B1CD1FFF7B8FE30235A
:104620000B40302B0ED1FEF7ECF8FEF78EF812207F
:10463000697320636F6D70696C652D6F6E6C792E78
:104640000A0026E0043740CF47F8046D1600FEF755
:1046500054FC95E7043740CF47F8046D160047F83F
:10466000046D0E00FFF79DFE8AE78646000081007C
:1046700009686F6F6B2D7175697447F8046D224E70
:104680007047BE4600001C470000000004717569B9
:104690007400DFF878D0194F1D480A2101601948CD
:1046A000002101600B480160FBF73DFE12480160EC
:1046B0001848016018494160134800688746FDF7B3
:1046C0009CFFFFF75CFFFEF740F805206F6B2E0A9A
:1046D000F5E70000080000200010000000040000C2
:1046E0000020000000020000280000200008000058
:1046F0005C00002060000020E44F00208C020020BD
:104700008C010020D84F0020D04F00208C030020C7
:10471000FC4F0020DC4F0020C40000203647000082
:1047200000000565696E743F47F8046DEFF310866D
:10473000013EB64170474647000020000465696E9F
:10474000740062B670475647000020000464696E2A
:10475000740072B670476C470000200004697073E3
:10476000720047F8046DEFF3058670477847000044
:104770000000036E6F707047BA47000000000975B3
:104780006E68616E646C656400B5FDF7DEFF1455FC
:104790006E68616E646C656420496E7465727275D2
:1047A0007074200047F8046DEFF30586FEF740F8BB
:1047B000FDF7CBFF02210A0000BDD047000000003A
:1047C000057265736574DFF80807DFF80817016084
:1047D000FC47000081000B6972712D737973746955
:1047E000636B47F8046DDFF8F06670478847000098
:1047F00044F6CC70C2F200000068874626480000EC
:104800008100096972712D6661756C7447F8046DD9
:10481000DFF8C86670478847000044F6C870C2F2E7
:104820000000006887465648000081000E697271DA
:104830002D636F6C6C656374696F6E0047F8046D6F
:10484000DFF89C6670478847000044F6C470C2F2E7
:104850000000006887467E48000081000769727189
:104860002D72746347F8046DDFF8786670478847E7
:10487000000044F6C070C2F2000000688746A848F5
:1048800000008100096972712D657874693047F8FC
:10489000046DDFF8546670478847000044F6BC702A
:1048A000C2F2000000688746D24800008100096912
:1048B00072712D657874693147F8046DDFF82C66E4
:1048C00070478847000044F6B870C2F200000068E4
:1048D0008746FC4800008100096972712D65787473
:1048E000693247F8046DDFF80866704788470000B2
:1048F00044F6B470C2F20000006887462649000002
:104900008100096972712D657874693347F8046D07
:10491000DFF8E06570478847000044F6B070C2F2E7
:1049200000000068874650490000810009697271E3
:104930002D657874693447F8046DDFF8BC657047FD
:104940008847000044F6AC70C2F200000068874659
:10495000784900008100076972712D61646347F82E
:10496000046DDFF8986570478847000044F6A8702A
:10497000C2F2000000688746A24900008100096970
:1049800072712D657874693547F8046DDFF87065CC
:1049900070478847000044F6A470C2F20000006827
:1049A0008746CE49000081000B6972712D74696DD4
:1049B0003162726B47F8046DDFF8486570478847CD
:1049C000000044F6A070C2F2000000688746FA4971
:1049D000000081000A6972712D74696D3175700073
:1049E00047F8046DDFF8206570478847000044F6FB
:1049F0009C70C2F2000000688746264A00008100D1
:104A00000B6972712D74696D3174726747F8046DAA
:104A1000DFF8F86470478847000044F69870C2F2E7
:104A2000000000688746524A000081000A697271DE
:104A30002D74696D3163630047F8046DDFF8D0644D
:104A400070478847000044F69470C2F20000006886
:104A500087467C4A00008100086972712D74696D77
:104A6000320047F8046DDFF8AC64704788470000F7
:104A700044F69070C2F2000000688746A64A000023
:104A80008100086972712D74696D330047F8046DF7
:104A9000DFF8846470478847000044F68C70C2F2E7
:104AA000000000688746D04A0000810008697271E2
:104AB0002D74696D340047F8046DDFF86064704749
:104AC0008847000044F68870C2F2000000688746FC
:104AD000FC4A000081000A6972712D6932633165F8
:104AE000760047F8046DDFF83864704788470000A7
:104AF00044F68470C2F2000000688746284B00002C
:104B000081000A6972712D6932633165720047F85C
:104B1000046DDFF8106470478847000044F6807029
:104B2000C2F2000000688746524B000081000A690B
:104B300072712D6932633265760047F8046DFA4E62
:104B400070478847000044F67C70C2F2000000689D
:104B500087467C4B000081000A6972712D693263BF
:104B60003265720047F8046DF04E704788470000C8
:104B700044F67870C2F2000000688746A44B00003B
:104B80008100086972712D737069310047F8046DF6
:104B9000E74E70478847000044F67470C2F2000088
:104BA00000688746CC4B00008100086972712D7344
:104BB0007069320047F8046DDE4E70478847000088
:104BC00044F67070C2F2000000688746F64B0000A1
:104BD00081000A6972712D7573617274310047F832
:104BE000046DD54E70478847000044F66C70C2F2E1
:104BF000000000688746204C000081000A6972713D
:104C00002D7573617274320047F8046DCB4E704796
:104C10008847000044F66870C2F2000000688746CA
:104C20004A4C000081000A6972712D7573617274BB
:104C3000330047F8046DC24E70478847000044F6C1
:104C40006470C2F2000000688746744C0000810066
:104C50000A6972712D6578746931300047F8046D06
:104C6000B84E70478847000044F66070C2F20000FA
:104C700000688746A04C000081000C6972712D729B
:104C80007463616C61726D0047F8046DAE4E7047DD
:104C90008847000044F65C70C2F200000068874656
:104CA000CA4C000081000B6972712D757362776BBD
:104CB000757047F8046DA54E70478847000044F6AC
:104CC0005870C2F2000000688746F24C0000810074
:104CD000086972712D74696D350047F8046D9C4E3A
:104CE00070478847000044F65470C2F20000006824
:104CF00087461A4D00008100086972712D73706932
:104D0000330047F8046D934E70478847000044F61F
:104D10005070C2F2000000688746424D00008100DA
:104D2000096972712D756172743447F8046D8A4E89
:104D300070478847000044F64C70C2F200000068DB
:104D400087466A4D00008100096972712D75617294
:104D5000743547F8046D814E70478847000044F66B
:104D60004870C2F2000000688746924D0000810042
:104D7000086972712D74696D360047F8046D784EBC
:104D800070478847000044F64470C2F20000006893
:104D90008746BA4D00008100086972712D74696DF3
:104DA000370047F8046D6F4E70478847000044F69F
:104DB0004070C2F2000000688746E24D00008100AA
:104DC000096972712D757362667347F8046D664EDA
:104DD00070478847000044F63C70C2F2000000684B
:104DE000874600500000FFFF182D2D2D20466C61D6
:104DF00073682044696374696F6E617279202D2D28
:104E00002D005A4885465A4F2A265A48574901606C
:104E100059485A49016047F8046D584E584DB188B9
:104E2000584B994224D0584B0B400AD0B01DFEF786
:104E30007FFCFDF7CAFF0388408800040343ED1A96
:104E400016E080230B4013D00F23194089006D1A00
:104E5000B01DFEF76DFCFDF7B8FF47F8046D0600C6
:104E600047F8046D2E0047F8046D0E00FCF7BAFCFD
:104E7000FEF73CFC300040CFD1D04448066040CF24
:104E800043480560434844493E4A884204D00238BA
:104E900003889342F9D0023040490860404800211D
:104EA0000160FBF740FA47F8046D3E4E47F8046D89
:104EB0000426FEF74CFC40CF002E03D0FEF71DF871
:104EC000FFF7FABB40CFFFF7E4BB696E69740000DF
:104ED0000CED00E00400FA05CC4F0020C84F002084
:104EE000C44F0020C04F0020BC4F0020B84F00200E
:104EF000B44F0020B04F0020AC4F0020A84F00203E
:104F0000A44F0020A04F00209C4F0020984F00206D
:104F1000944F0020904F00208C4F0020884F00209D
:104F2000844F0020804F00207C4F0020784F0020CD
:104F3000744F0020704F00206C4F0020684F0020FD
:104F4000644F0020604F00205C4F0020584F00202D
:104F5000544F0020504F00204C4F0020484F00205D
:104F6000444F0020404F00203C4F00208C03002085
:104F70008C020020000000200400002050010000EE
:104F800000500020FFFF0000000100001C00002076
:104F90002400002000000100005000001800002044
:104FA00008000020CA4E0000FFFFFFFFFFFFFFFFC9
:1050000030500000000006636869706964004FF268
:105010008070C1F6FF70836EC26E016F47F8046D39
:1050200047F8043D47F8042D47F8041D0326704750
:1050300058500000000004687769640000B5FFF76D
:10504000E6FF30B40124350040CF08CF5E40013484
:10505000AC42FAD130BC00BD885000002018086670
:105060006C6173682D6B62004FF2C070C1F6FF7007
:10507000038C47F8046D1E4670470200E0F7FF1FDF
:105080000020121900002002C450000000000E662B
:105090006C6173682D7061676573697A65004FF2A2
:1050A000C070C1F6FF70068C802E00B540CF04DCC6
:1050B00047F8046D5FF4806603E047F8046D5FF421
:1050C000006600BDEC5000006118036269740123A2
:1050D000B3401E4670470300010000000020D60EBA
:1050E0000000620278120000620200000851000015
:1050F0004000044146494F0047F8046D40F2000665
:10510000C4F2010670470000285100004000094128
:1051100046494F2D4D41505247F8046D40F2040668
:10512000C4F20106704700004051000040000352E5
:10513000434347F8046D41F20006C4F2020670478B
:105140005C5100004000065243432D43520047F893
:10515000046D41F20006C4F2020670477C51000063
:105160004000085243432D434647520047F8046D20
:1051700041F20406C4F20206704700009C51000090
:1051800040000A5243432D414842454E520047F8E1
:10519000046D41F21406C4F202067047BC510000CF
:1051A00040000B5243432D41504232454E5247F886
:1051B000046D41F21806C4F202067047DC5100008B
:1051C00040000B5243432D41504231454E5247F867
:1051D000046D41F21C06C4F202067047F85100004B
:1051E000400005464C41534847F8046D42F2000622
:1051F000C4F2020670470000185200004000094641
:105200004C4153482D41435247F8046D42F2000689
:10521000C4F2020670470000845200000000053707
:10522000324D487A42F20000C4F2020012230360B9
:1052300041F20000C4F20200036853F480330360BB
:1052400000B541F20000C4F20200036813F4003319
:105250005B1EF6D341F20000C4F2020048F20243A2
:10526000C0F21D034360036853F08073036041F292
:105270000000C4F20200036813F000735B1EF6D353
:1052800000BD0000AC52000081000C632C636F6C09
:105290006C656374696F6E0047F8046D44F6387688
:1052A000C2F2000670470000000000000453000036
:1052B000000002632C0044F60070C2F20000836B11
:1052C00047F8046D1E4600B5002E01D047F8046D66
:1052D000002E40CF0DD016F0FF0608CF1B021E4354
:1052E000FDF75BFF44F60070C2F200000023836309
:1052F00007E056F4807644F60070C2F20000866340
:1053000040CF00BD3053000000000663616C696748
:105310006E0044F60070C2F20000836B00B5002BF3
:1053200004D047F8046D0026FFF7C5FF00BD00005C
:10533000A053000000000B636F726E657273746F90
:105340006E6500B5FDF7DCFCFEF7B3FA47F8046DB7
:10535000FFF7A5FE761E08CF1E40002E40CF05D0D9
:1053600047F8046D0026FDF718FFEDE742F6C74049
:10537000804747F8046DBEF1010647F8046D47F811
:10538000046DFFF78CFE761E08CF1E40002E40CF26
:1053900001D0B61CF1E7FDF773F9FCF7B2FD00BDD3
:1053A000D0530000201809696E69742D72696E6708
:1053B000761E08CF1E6040CF704703001620000005
:1053C0006102D60E00006202821800002002000076
:1053D00000540000201804632B2B40003378761C07
:1053E00047F8043D704704006E0E00006102E619A4
:1053F00000002002D60E000062022E200000610292
:105400002C54000000000972696E672D737465707A
:1054100008CFF618327800B504B43278521C3270D6
:105420001E7804BC16400433F61800BD4C5400002E
:1054300020080572696E67233378761C3278761CF3
:105440003178761C561A1E4070470000A0540000A8
:1054500000100572696E673F47F8046D3378761C5B
:105460003278761C3178761C561A1E4008CF1B788D
:105470009E4202DA0026F64300E00026704705004F
:105480006E0E00006102385400002008D60E0000A5
:105490006202E61900002002961400004202000099
:1054A000C05400000000053E72696E6747F8046D45
:1054B000012600B5FFF7ACFF08CF337040CF00BD29
:1054C000DC54000000000572696E673E47F8046D09
:1054D000022600B5FFF79CFF367800BD0C55000092
:1054E0000000077573623A646576360000B542F6CF
:1054F000A140C0F2000080471201000202000040FB
:105500008304405700020102030100006C550000B3
:105510000000087573623A636F6E660000B542F66C
:10552000A140C0F20000804709024300020100C010
:1055300032090400000102020100052400100105E7
:10554000240100010424020205240600010705824B
:10555000030800FF09040100020A00000007050318
:105560000240000007058102400000009055000045
:1055700000000A7573623A6C616E676964003600F8
:1055800000B542F6A140C0F20000804704030904C0
:10559000D855000000000A7573623A76656E646F34
:1055A0007200360000B542F6A140C0F2000080470C
:1055B00028034D00650063007200690073007000ED
:1055C00020002800530054004D00330032004600F4
:1055D00031003000780029001C56000000000B75D7
:1055E00073623A70726F64756374360000B542F688
:1055F000A140C0F200008047240346006F00720003
:1056000074006800200053006500720069006100AA
:105610006C00200050006F007200740040560000C3
:105620000000087573623A6C696E650000B542F659
:10563000A140C0F20000804700C201000100080044
:105640007C5600000000087573623A696E69740048
:1056500000B542F6A140C0F2000080478000000083
:1056600040000084C0000000000000004001000075
:1056700000000000000000000001008494560000BB
:1056800040000355534247F8046D45F60046C4F206
:1056900000067047B45600004000085553422D459F
:1056A0005030520047F8046D45F60046C4F200063B
:1056B00070470000D45600004000085553422D4367
:1056C0004E54520047F8046D45F64046C4F20006B9
:1056D00070470000F45600004000085553422D4921
:1056E0005354520047F8046D45F64446C4F2000690
:1056F00070470000105700004000075553422D46E8
:105700004E5247F8046D45F64846C4F2000670470D
:10571000305700004000095553422D444144445243
:1057200047F8046D45F64C46C4F200067047000089
:105730005057000040000A5553422D425441424CFC
:10574000450047F8046D45F65046C4F20006704720
:105750006C5700004000065553424D454D0047F838
:10576000046D46F20006C4F2000670479057000030
:105770002008077573622D706D6116F001035B429E
:1057800076009E1946F20003C4F20003F618704733
:10579000C85700000010087573622D706D614000DD
:1057A00016F001035B4276009E1946F20003C4F234
:1057B0000003F6183688704702007A570000200868
:1057C00012190000200200000458000000100875A3
:1057D00073622D706D61210016F001035B4276004B
:1057E0009E1946F20003C4F20003F61808CF338076
:1057F00040CF704702007A57000020085619000079
:10580000200200003458000020180765702D6164E4
:105810006472B60045F60043C4F20003F618704700
:1058200003001A2100006102005C00400020381FC4
:10583000000062026458000000000665702D726569
:105840006700760008CF08225343F61816F00103CC
:105850005B4276009E1946F20003C4F20003F6187C
:1058600070470000A8580000000007727873746148
:10587000742108CF9B0045F60042C4F200029B1839
:1058800000B508B43603009B1B885E4016F44056F2
:1058900040F60F72134048F2800213431E4308BCC7
:1058A0001E8040CF00BD0000EC58000000000774CF
:1058B00078737461742108CF9B0045F60042C4F2EE
:1058C00000029B1800B508B43601009B1B885E409F
:1058D00016F0300640F60F72134048F28002134370
:1058E0001E4308BC1E8040CF00BD000024590000AC
:1058F00000000C65702D72657365742D727823003D
:1059000047F8046D5FF4044347F8043D47F8046D1D
:10591000032600B5FFF795FF08CF33800326FFF776
:10592000A8FF00BD545900000000077278636C6541
:105930006172B60045F60043C4F20003F6183388DE
:1059400047F6FF72134048F68F721340338040CF02
:1059500070470000845900000000077478636C658C
:105960006172B60045F60043C4F20003F6183388AE
:105970004FF67F72134048F68F721340338040CF4A
:1059800070470000AC5900008200087573622D70EA
:10599000656E640047F8046D44F63076C2F2000686
:1059A000704700000000000000000000D059000017
:1059B00040010A7573622D73657269616C0047F866
:1059C000046D44F61C76C2F2000670471400000015
:1059D0006C5A000000000A7365742D73657269616A
:1059E0006C0044F68070C2F20000C36F47F8046D8B
:1059F0001E4600B5FCF73CFCFFF720FB47F8046DA2
:105A00000026FEF749FC47F8046D30B40024082551
:105A100040CFFEF72AFC0134AC42FAD130BCFEF78D
:105A2000F0FB30B40024350040CF33782200521C04
:105A3000520044F61C71C2F2000152181380761C09
:105A40000134AC42F1D130BC40CF44F68070C2F298
:105A50000000C66744F60070C2F2000040F2123641
:105A6000868344F61C76C2F2000600BD9C5A0000F4
:105A700020180973656E642D6461746108CF44F663
:105A80000070C2F200000663436340CF704702001B
:105A9000304F002000208C0C00002002945B00009E
:105AA00000000973656E642D6E65787444F60070AD
:105AB000C2F20000436B026B40218A4200DB0A46BF
:105AC00047F8046D47F8043D47F8042D462616F0C4
:105AD00001035B4276009E1946F20003C4F2000304
:105AE000F618368808CF9E4200DB1E4600B540B44B
:105AF000009E01203040361830B40024350040CFDD
:105B0000AC421FD02300F3181B882200803247F8D4
:105B1000046D47F8043D164616F001035B4276001B
:105B20009E1946F20003C4F20003F61808CF338032
