:100000008C030020074E00001F4800001F4800001E
:100010001F4800001F4800001F48000000000000AB
:100020000000000000000000000000004F48000039
:100030004F480000000000004F480000F547000056
:100040004F4800004F4800004F480000774800002C
:100050004F4800004F480000A1480000CB48000076
:10006000F54800001F490000494900004F480000C2
:100070004F4800004F4800004F4800004F48000024
:100080004F4800004F480000714900004F480000F1
:100090004F4800004F4800004F4800009B490000B7
:1000A000C7490000F34900001F4A00004B4A000006
:1000B000754A00009F4A0000C94A0000F54A000046
:1000C000214B00004B4B0000754B00009D4B000086
:1000D000C54B0000EF4B0000194C0000434C0000E2
:1000E0006D4C0000994C0000C34C00000000000063
:1000F0000000000000000000000000000000000000
:100100000000000000000000EB4C0000134D000058
:100110003B4D0000634D00008B4D0000B34D0000CF
:100120004F4800004F4800004F4800004F48000073
:100130004F4800004F4800004F4800004F48000063
:100140004F4800004F4800004F480000DB4D0000C2
:1001500098050000FFFF222D2D2D204D656372694B
:1001600073702D5374656C6C6172697320524120F9
:10017000322E342E31202D2D2D0007B59148002B25
:1001800009D000F03BF800F041F800F027F8426099
:1001900028210160F3E707BD00B58A480023016804
:1001A000282905D1426800F004F800F04CF8F6E781
:1001B00000BD03B547F8046D160047F8046D1E0036
:1001C00008B400F0A5FF08BC013347F8046D7E4E6B
:1001D00047F8046D7D4E04F04EF903BD03B5013BB5
:1001E00047F8046D1E0008B400F07CFF08BC320024
:1001F00047F8046D764E04F03EF903BD03B575482B
:1002000001681E2901D000F034F803BD8169016244
:10021000016981618168016101688160C169416230
:100220004169C161C16841614168C1601E210160CD
:1002300070470FB5634801681E2903D0FFF7DEFF42
:10024000FFF7E4FF0FBD02B581680160C16841603E
:1002500000E002B5016981604169C16081690161A5
:10026000C1694161016A8161416AC1611E21016206
:1002700002BD08B501681E220260082901D20B00E8
:1002800004E0282909D1436800F05BF847F8046DC1
:10029000514E56EA033602F0B1FF08BD00B500F03A
:1002A00009F800F00CF800F00FF800F012F800F078
:1002B00015F800BD0FB54748FFF7DBFF0FBD0FB5C1
:1002C0004648FFF7D6FF0FBD0FB54548FFF7D1FFF2
:1002D0000FBD0FB54348FFF7CCFF0FBD0FB5394831
:1002E0000168062202601E2906D147F8046D4CF60B
:1002F000407602F054FF15E0282909D1436847F8F9
:10030000046D1E0047F8046D062602F019FC09E092
:10031000062907D047F8046D44F20666C9000E436B
:1003200002F03DFF00F001F80FBD26481E210162DA
:10033000816101618160C1620621016000218162E9
:10034000704707B547F8046D1E0000F04DF847F8F8
:10035000046D1E0002F0F4FB07BD07B5C16A282931
:1003600004D1016B994201D1002307BD0168002926
:1003700000F01D808168002900F0198001690029C2
:1003800000F015808169002900F01180016A0029C0
:1003900000F00D80036347F8046D1E0047F8046DFC
:1003A000002602F0CDFB2821C162002307BD47F8DB
:1003B000046D1E0000F018F847F8046D1E0002F0EE
:1003C000BFFB07BD28000020980E0000610200005E
:1003D0000020000048000020040D47F840000020E5
:1003E000380000203000002037B5364801688268A8
:1003F00003698469056A062000F00EF8032000F006
:100400000BF8022000F008F8012000F005F80023A6
:100410002C481E21C16237BD814209D0824207D0DB
:10042000834205D0844203D0854201D0030037BD0A
:10043000704747F8046D4CF6007600B581581E29C8
:1004400005D1FFF7D1FF8350012199400E4300BD34
:1004500000B501681E2904D10022FFF7EAFF02F06F
:100460009EFE00BD00B581681E2907D10822FFF756
:10047000E0FF0022FFF7E1FF02F091FE00BD00B5B2
:1004800001691E290AD11022FFF7D3FF0822FFF7C6
:10049000D4FF0022FFF7D1FF02F081FE00BD00B5BE
:1004A00081691E290DD11822FFF7C3FF1022FFF723
:1004B000C4FF0822FFF7C1FF0022FFF7BEFF02F0D2
:1004C0006EFE00BD2800002000B50168282904D177
:1004D0004368FFF736FF0360190000BD00B581686F
:1004E000282904D1C368FFF72CFF8360190000BDE1
:1004F00000B50169282904D14369FFF722FF036190
:10050000190000BD3EB5826803698469056A9A4294
:1005100003D0A24201D0AA420AD1072A08D847F83C
:10052000046DD600FFF760FF1E43836002F037FEC4
:100530003EBD3EB50168826803698469056A9142DF
:1005400006D0994204D0A14202D0A94200D03EBDBB
:1005500047F8046DCE00FFF747FF1E43036002F02B
:100560001EFE3EBD00B5FFF76EFEFFF762FEFFF711
:100570003BFF036000BD01B506480368013308D0A6
:100580000023DB43036047F8046D4BF2005602F092
:1005900006FE01BDD84F0020BC0500004202043217
:1005A00064757000386847F8046D043F3860704720
:1005B00000B500F0C3FC00F0C1FC00BDDA0500008E
:1005C0006202053264726F70043740CF704700B525
:1005D00000F064FC00F062FC00BD20060000440254
:1005E00005327377617007CF043F386047F8046DB8
:1005F000043F3A600E00704700B5FFF750FF0268F5
:100600000369036002614268436943604261826832
:10061000836983608261C268C369C360C26100BDCF
:1006200048060000620204326E69700007CF043F82
:100630003860704700B5FFF732FFFFF7DDFFFFF7C7
:1006400002FEFFF700FE00BD620600004400053216
:100650006F766572B86847F8046D043F3860FE68CD
:10066000704786060000440005327475636B07CF3F
:10067000043F386047F8046D043F3A60043F396036
:10068000043F38607047A806000046000432726FCD
:1006900074003868B9683A69B86039613A60796855
:1006A0007E60FE68F9607047CA06000046000532A9
:1006B0002D726F743868B9683A6938613960BA6008
:1006C000F968FE607E6879607047F20600002002DB
:1006D00003323E7201CF01B440B440CF704700B541
:1006E000FFF749FF00F0FDFB00F09DFC00F09BFCD4
:1006F00000BD1E07000020020332723E47F8046D61
:1007000040BC01BC043F3860704700B5FFF733FFC1
:1007100000F0A5FC00F0A3FC00F0E3FB00BD4E07D9
:10072000000020020332724047F8046D019E47F832
:10073000046D009E704700B5FFF71DFF47F8046D7C
:1007400049F6010603F051FA03F04BFA00BD7407B5
:100750000000200206327264726F700002B07047AF
:1007600000B5FFF708FF47F8046D4BF2020602F0F0
:1007700016FD00BD8C07000042000364322F38686C
:10078000F10776104008084338607047A207000060
:1007900062020364322A3868001876413860704774
:1007A00017E0BC07000042000464736872003868F8
:1007B000F1077608400808433860704708080000D1
:1007C0006202046473686C0038680018764138600F
:1007D000704700B5FFF746FEFFF776FEFFF7A9FE6C
:1007E00000F07FFBFFF770FEFFF7A3FE47F8046DF4
:1007F000402601F057FC00F074FB47F8046D44F20A
:10080000401601F04FFC00BD1A08000042000464CD
:1008100061627300002E07D4704738080000420060
:1008200007646E656761746538680021C043F643EC
:1008300001304E413860704788080000640202644D
:100840002D0007CF121AB1410E00043F3A607047E5
:1008500000B5FFF724FE00F099FBFFF735FEFFF728
:1008600068FE00F03EFBFFF72FFEFFF762FEFFF78A
:10087000C3FE01F081FB00F0A5FB47F8046D44F2D4
:10088000801600F031FD00BDD6080000640202644D
:100890002B0007CF12184E41043F3A60704700B555
:1008A000FFF7FDFD00F072FBFFF70EFEFFF741FEC4
:1008B00000F017FBFFF708FEFFF73BFEFFF79CFE7B
:1008C00001F03FFB00F07EFB47F8046D44F2401658
:1008D00000F00EFD00BD00090000610203733E64DC
:1008E00047F8046DF617704700B500F0C5FAFFF73A
:1008F00020FE47F8046D41F2C07601F0D3FB00BD45
:100900005E090000620203756D2A3868A0FB0606C6
:100910003860704747F8046DDFF8006500B5FFF7F1
:10092000A1FDFFF7D1FDFFF7D9FD01680E438168F6
:1009300056EA0146FFF787FCFFF785FCFFF779FCD5
:10094000FFF752FD036056EA0336FFF772FCFFF72C
:100950004BFD036056EA032602F050FC00BD7C0903
:1009600000006202026D2A00386880FB06063860CB
:10097000704747F8046DDFF8A864CFE7BA090000B4
:1009800044000375642A07CF564341437618010C8F
:10099000130C59437618010C80B292B25143434371
:1009A00050430022C91852411204B6180A04090C17
:1009B00080184E41043F386070474C0A00004400E4
:1009C0000475646D2A0010B5002447F8046D7E6834
:1009D00047F8046D3E69FFF798FF310040CF3000C3
:1009E00040CF47F8046D3E6847F8046DFE6803B4D5
:1009F000FFF78BFF03BC330040CF320040CF47F8F6
:100A0000046D3E6847F8046D3E690FB4FFF77DFF43
:100A10000FBC9219634140CF89196241634140CFB5
:100A200047F8046D7E6847F8046DFE680FB4FFF761
:100A30006CFF0FBC9219634140CF89196241634139
:100A400040CF1E003A607960B86010BD6E0A0000A9
:100A50004300022A2F0000B540B440CFFFF784FFC7
:100A600047F8046D40BC00F04CF8043700BD900A14
:100A700000004300052A2F6D6F6400B540B440CFDD
:100A8000FFF772FF47F8046D40BC00F03AF800BD74
:100A9000B20A0000430003752A2F00B540B440CFCE
:100AA000FFF733FF47F8046D40BC00F01BF8043734
:100AB00000BDD60A0000430006752A2F6D6F640042
:100AC00000B540B440CFFFF720FF47F8046D40BCAD
:100AD00000F008F800BDF60A0000430006756D2F0F
:100AE0006D6F640000B547F8046D002600F019F83A
:100AF00040CF043700BD140B00004300056D2F6D7F
:100B00006F6400B547F8046DF61700F032F840CF77
:100B1000043700BD660B000044000675642F6D6F3E
:100B2000640030B4002300227968B86835003C685E
:100B300040264000494152415B41AB4202D804D3B8
:100B4000A24202D3121BAB410130013EF1D10E0093
:100B500038607B60BA6030BC704730B400237A687C
:100B6000B9680020E2E7DC0B0000440005642F6D4B
:100B70006F6400B5F01719D0FFF756FEFFF733FD8D
:100B8000F0170CD0FFF750FEFFF72DFDFFF7C9FF60
:100B9000FFF729FDFFF748FEFFF725FD00BDFFF732
:100BA00022FDFFF7BEFFFFF73FFE00BDFFF71BFD75
:100BB000F0170ED0FFF738FEFFF715FDFFF7B1FF76
:100BC000FFF732FEFFF70FFDFFF72EFEFFF70BFDDD
:100BD00000BDFFF708FDFFF7A4FF00BDF20B00000A
:100BE000440002642F0000B5FFF7C3FFFFF71EFDAE
:100BF00000BD3A0C0000440002662A0000B5F01760
:100C00000DD0FFF711FEFFF7EEFCF0170DD0FFF748
:100C10000BFEFFF7D8FE40CF01CF386000BDFFF7D5
:100C2000E2FCF017F5D0FFF7FFFDFFF7CCFE40CF59
:100C300001CF3860FFF7F8FD00BD860C00004400CE
:100C400002662F0000B5F0170ED0FFF7EDFDFFF79D
:100C5000CAFCF0170ED0FFF7E7FDFFF7C4FCFFF763
:100C60007CFFFFF7E3FC00BDFFF7BDFCF017F4D0FD
:100C7000FFF7DAFDFFF7B7FCFFF76FFFFFF7D4FDD3
:100C8000FFF7D4FC00BDCE0C000020020232210090
:100C900006CF3160726040CF704700B5FFF7EFFBC1
:100CA0000168426806B400F0F2FDFFF7C2FA06BC24
:100CB0000160282906D047F8046D46F2400600F08E
:100CC000EAFD00BD0432426000F0E1FD00BD180DF8
:100CD0000000200202324000043F7068386036682D
:100CE000704700B500F0C8F8016828290AD047F815
:100CF000046D46F6400600F0ABFD00F0F2F800F09F
:100D0000A3FD00BD41680431416000F09DFD00F08D
:100D1000E8F800F099FD00BD2C0D000044000364CC
:100D2000753C07CF121AB141B6417047400D000023
:100D300044000364753E07CF801A8E41B641704768
:100D4000560D0000440002643C0007CF121AB14166
:100D50000CDB00267047720D0000440002643E0068
:100D600007CF801A8E4101DB002670470026F6432C
:100D700070478E0D000062020364303C0437F617A2
:100D8000704700B500F0C0F800F03CFB00BDB60DA8
:100D9000000062020364303D01CF0643013EB641CC
:100DA000704700B547F8046D44F2003600F0A0FA31
:100DB00000F004FB00BDDC0D0000440203643C3E77
:100DC00007CF50404E400643013EB641F6437047C0
:100DD00000B500F015F800F004FB00BD240E000083
:100DE000440202643D0007CF50404E400643013E9E
:100DF000B641704700B500F003F800F0DFFA00BD1F
:100E000000B5FFF74CFB00F0C1F800F0C3F900F0AB
:100E1000D9F800F0BFF900F0B0F900BD0000A0FB68
:100E2000000080FB360E000020000373704047F87E
:100E3000046D3E007047460E0000200003737021D1
:100E4000370040CF7047580E0000200003727040FA
:100E500047F8046D6E467047680E0000200003726C
:100E60007021B54640CF70478C0E000061020364CC
:100E7000757047F8046D704706B5FFF7E9FA016829
:100E80004268FFF7D6F90160426006BDB80E000067
:100E900061020464726F700040CF704700B5016852
:100EA0001E2906D147F8046D43F2047602F077F963
:100EB00000BDFFF7C8F900BDCE0E00006100043F81
:100EC00064757000002E01D047F8046D7047FA0E6B
:100ED0000000620204737761700039683E600E00A2
:100EE00070470CB5FFF7BEFA026883680360826042
:100EF0004268C3684360C2600CBD280F00006202F4
:100F0000036E69700437704700B5FFF7A1FA816876
:100F10001E2902D0FFF79DF900BD47F8046D43F28A
:100F2000047602F03CF900BD500F00006202046F2D
:100F30007665720047F8046D7E68704700B5FFF76C
:100F400091FA8168C268FFF774F90160426000BDE0
:100F5000760F00006202047475636B0001CF083FD6
:100F60007E603860704700B5FFF77CFAFFF784FFBA
:100F700000F028F800BDAC0F0000630203726F742C
:100F800003CF083F78603E600E0070470EB5FFF754
:100F900076FA0168826803698160026103604168D2
:100FA000C2684369C160426143600EBDD00F00005A
:100FB0006302042D726F740003CF083F7E603960B6
:100FC0000600704700B5FFF7E1FFFFF7DFFF00BD48
:100FD000E20F00002000047069636B0057F8266080
:100FE0007047FA0F000000000564657074684F498F
:100FF000C91B47F8046D8E087047161000000000EA
:10100000067264657074680047F8046D6E4648495E
:10101000891B8E0870474C1000002002023E7200AF
:1010200040B440CF704700B5FFF7A5FAFFF710FABC
:10103000FFF74AFA47F8046D4BF2004601228A4056
:10104000164302F0ACF8FFF7FEF800BD8210000076
:10105000200202723E0047F8046D40BC704700B5A4
:10106000FFF789FAFFF7E5F8FFF7BEF9036047F8E5
:10107000046D4BF6004601229A40164302F08FF8A9
:1010800000BDA010000020020272400047F8046D6D
:10109000009E704700B5FFF76EFA02F0A2FD00BD9A
:1010A000C41000002002057264726F7001B07047B6
:1010B00000B5FFF760FA47F8046D4BF2010602F045
:1010C0006EF800BDD8100000200005727069636BD7
:1010D000B6006E44366870470411000000000472C8
:1010E0006F6C6C00002E01D140CF7047B0003958B2
:1010F000C019031F1A6802600438013EF9D1043791
:101100000E007047341100000000052D726F6C6CEA
:10111000002E01D140CF7047386839464A680A60CE
:101120000431013EFAD1086040CF70478C020020A4
:101130008C0300204E110000620203616E6401CF37
:101140000640704747F8046D44F20006D0E06A118B
:10115000000062020362696301CFB043060070477A
:1011600047F8046D44F28036BEE08411000062024C
:10117000026F720001CF0643704747F8046D44F2D6
:101180000036B5E09E110000620203786F7201CF55
:101190004640704747F8046D44F24006A8E0B61197
:1011A00000006202012A01CF4643704747F8046DF0
:1011B00044F240369CE0EA110000610203636C7A5D
:1011C000B6FA86F6704700B5FFF742F947F8046DA6
:1011D0006F4EFFF779F90E4356EA0146FFF7C2F961
:1011E00056EA032602F00AF800BDFA110000610079
:1011F00003726F725FEA760670470C12000061009E
:1012000003726F6CB61956F1000670474412000065
:101210006202076172736869667401CF304106002B
:10122000704700B547F8046D44F2001647F8046DA6
:1012300041F20006FFF716F941681F292AD91F213C
:10124000416027E06E1200006202067273686966F0
:10125000740001CFF0400600704700B547F8046DF8
:1012600044F2C00647F8046D40F6000612E0AC13E5
:1012700000006202066C73686966740001CFB040BA
:101280000600704700B547F8046D44F2800647F841
:10129000046D0026FFF7E6F80168282903D040CF47
:1012A00000F022F800BD04374168FEF7CCFF0029AA
:1012B00001D140CF00BD1F290AD889010E43026821
:1012C000D2001643FFF74EF91E4301F068FF00BD40
:1012D00040CFFFF747F947F8046D42F200061B02C2
:1012E0001E4301F05CFF00BD0FB5FFF7BBF80CE03B
:1012F0000FB5FFF7B7F80168062901D1FFF7F1FD37
:101300008268282A01D1FFF7ECFDFFF7E7F80168B2
:1013100028291CD147F8046D466801F05DFB02CF17
:10132000002E40CF13D0B6F5804F01D1194E1CE0EE
:10133000194A964201D1194E17E0B6F5864F01D1F0
:10134000174E12E0174A964201D1174E0DE0FFF7F3
:10135000D9F8FFF7B9F8C90082680E43164301F0C7
:101360001EFFFEF770FF0FBD0FB50E43816856EAF2
:101370000146FEF768FFFEF766FFFEF75AFFFFF72C
:1013800033F8036056EA032601F038FF0FBD000072
:1013900080F0B0FA000010F040400000000090F033
:1013A000000050F080430000000030F0D013000037
:1013B000610202303D00013EB641704700B500F0C9
:1013C000FDF800F02CFEFEF73EFF7949816200BD7A
:1013D000F6130000610203303C3E013EB641F64385
:1013E000704700B500F0EAF800F019FEFEF72BFF99
:1013F0007049816200BD1C140000610202303C0093
:10140000F617704700B500F0D9F847F8046D41F2BF
:10141000C07600F047FE6849816200BD32140000CA
:10142000600004747275650047F8046D0026F64389
:1014300070474614000060000566616C736547F8EC
:10144000046D002670476C1400004202023E3D000D
:1014500001CFB042EADA0026704747F8046D4DF636
:10146000003647F8046D4DF60026B3E092140000F4
:101470004202023C3D0001CFB042D7DD002670475A
:1014800047F8046D4DF6004647F8046D4DF60056DA
:10149000A0E0B61400004202013C01CFB042C5DB1F
:1014A0000026704747F8046D4DF6002647F8046D96
:1014B0004DF600368EE0DA1400004202013E01CF04
:1014C000B042B3DC0026704747F8046D4DF6005675
:1014D00047F8046D4DF600467CE0001500006202FE
:1014E00003753E3D01CF861BB641F643704747F872
:1014F000046D4DF2003647F8046D4DF2002669E0A8
:1015000026150000620203753C3D01CF361AB64134
:10151000F643704747F8046D4DF6000647F8046D32
:101520004DF6001656E04A150000620202753C00B6
:1015300001CF861BB641704747F8046D4DF2002677
:1015400047F8046D4DF2003644E06E15000062026B
:1015500002753E0001CF361AB641704747F8046D58
:101560004DF6001647F8046D4DF6000632E0901572
:1015700000006202023C3E0001CF811B361A0E437E
:10158000704747F8046D4DF2000647F8046D21E0FE
:10159000F81600006202013D01CF361A013EB64145
:1015A000704747F8046D4DF2001647F8046D11E0DE
:1015B00000D2000000D3000000D5000000B5FEF707
:1015C00047FFFEF777FEFEF77AFEFEF77DFEFEF799
:1015D00085FF00BD00B5FEF745FFFEF76BFEFEF789
:1015E0006EFEFEF785FF8268282A04D1FFF779FC9A
:1015F00039683E600E4640CF016828291DD14168F8
:10160000FF2907D847F8046D42F600060E438168AB
:1016100009021AE047F8046D466801F0DDF902CFCF
:10162000002E40CF09D047F8046D694E0E43816803
:1016300056EA014601F0E2FD0AE0FEF745FF47F8F1
:10164000046D44F28026C90016430E4301F0A7FD45
:10165000FEF7F9FDFEF7F7FD866240CF00BD0FB53E
:101660005C48816A002933D047F8046D866A0021FE
:101670008162310AD52901D140CF0FBDFEF7D9FDD6
:10168000FEF7B2FE0360D22903D1534E00F00AFDEB
:101690000FBDD32905D1504E00F004FD00F015FD1B
:1016A0000FBD023601F07BFD47F8046D42F20006E3
:1016B00000F00FF800F009FD47F8046D4EF2000647
:1016C00001F06DFD47F8046D42F2000600F001F8EC
:1016D0000FBD00B5FEF7BCFEFEF72BFF0168090247
:1016E0000E4301F05CFD00BD00B5816A090AD529F1
:1016F00001D1FEF7A8FD00BD161700006202036DC0
:10170000696E01CFB04200DC0600704747F8046DF7
:101710004DF600362DE0341700006202036D61784B
:1017200001CFB04200DB0600704747F8046D4DF66C
:1017300000461EE054170000620204756D617800D7
:1017400001CFB04200D30600704747F8046D4DF654
:1017500000060EE0DC170000620204756D696E0081
:1017600001CFB04200D80600704747F8046D4DF233
:10177000003600B5FEF776FE01688268914203D11B
:1017800040CFFEF766FD00BD062A01D1FFF7A9FB99
:101790000168282901D1FFF7A4FBFEF7CAFEFEF776
:1017A0009DFEC900026847F8046D44F280260E438E
:1017B000164301F0F4FC01F0F2FC47F8046D44F22A
:1017C00000660E43164301F0EAFCFEF742FD00BD41
:1017D000000FB0F128000020804100001A1800001E
:1017E0000000046D6F76650007B5310040CF320010
:1017F00040CF00290FD0B2420DD006D3013E013AAE
:10180000705C50540139FBD105E03078107001361E
:1018100001320139F9D140CF07BD3C18000000006A
:101820000466696C6C00300040CF310040CF002965
:1018300002D001397054FCD140CF70477E180000AF
:10184000200201403668704747F8046D46F60006EE
:1018500000B5FEF7FDFD0368282B08D143687C2105
:10186000194009010E437C218B43FEF776FDDB0016
:101870001E43FEF777FE1E4301F091FC00BDD61813
:1018800000002002012103CF30600E00704747F8AE
:10189000046D46F2000600B5FEF7E4FD0368282B50
:1018A00009D143687C21194009010E437C218B43F7
:1018B000FEF753FD0360DB001E438368282B02D133
:1018C000C368FEF73EFD1E4301F069FCFEF7BBFC5A
:1018D000FEF7B9FC00BD0C1900002002022B21000C
:1018E00003CF3268121832600E00704700B5FEF761
:1018F000B9FDFFF7C1FAFFF7A7FFFFF747FB00F0BD
:1019000020FBFFF7EEFAFFF7C2FF00BD5019000001
:101910002002026840003688704700B5FEF798FD47
:1019200047F8046D48F600060368282B08D1436881
:101930003E21194049010E433E218B43FEF70DFD28
:10194000DB001E43FEF70EFE1E4301F028FC00BD27
:10195000AA19000020020268210003CF30800E0087
:10196000704700B5FEF77EFD47F8046D48F20006AB
:101970000368282B09D143683E21194049010E43D1
:101980003E218B43FEF7E9FC0360DB001E438368C6
:10199000282B02D1C368FEF7D4FC1E4301F0FFFBE5
:1019A000FEF751FCFEF74FFC00BDE01900002002DD
:1019B00003682B2103CF3288121832800E00704743
:1019C00000B5FEF74FFDFFF757FAFFF7A6FFFFF749
:1019D000DDFA00F0B6FAFFF784FAFFF7C2FF00BDA8
:1019E000241A00002002026340003678704700B5D8
:1019F000FEF72EFD47F8046D47F600060368282B16
:101A000008D143681F21194089010E431F218B43D0
:101A1000FEF7A3FCDB001E43FEF7A4FD1E4301F00E
:101A2000BEFB00BD7E1A000020020263210003CF2E
:101A300030700E00704700B5FEF714FD47F8046DD6
:101A400047F200060368282B09D143681F2119407B
:101A500089010E431F218B43FEF77FFC0360DB00EF
:101A60001E438368282B02D1C368FEF76AFC1E431D
:101A700001F095FBFEF7E7FBFEF7E5FB00BDB41AAE
:101A80000000200203632B2103CF3278121832703A
:101A90000E00704700B5FEF7E5FCFFF7EDF9FFF724
:101AA000A6FFFFF773FA00F04CFAFFF71AFAFFF7F8
:101AB000C2FF00BDF41A0000200204626973210015
:101AC00003CF3268024332600E00704700B5FEF764
:101AD000C9FCFFF7D1F9FFF7B7FEFFF757FA47F850
:101AE000046D44F20036FFF703FCFFF7FAF9FFF745
:101AF000CEFE00BD341B0000200204626963210099
:101B000003CF3268824332600E00704700B5FEF7A3
:101B1000A9FCFFF7B1F9FFF797FEFFF737FA47F88F
:101B2000046D44F28036FFF7DFFBFFF7DAF9FFF7C9
:101B3000AEFE00BD741B0000200204786F7221000D
:101B400003CF3268424032600E00704700B5FEF7A6
:101B500089FCFFF791F9FFF777FEFFF717FA47F8CF
:101B6000046D44F24006FFF7C3FBFFF7BAF9FFF735
:101B70008EFE00BDAA1B00002002046269744000B2
:101B800001CF3668064018BF4FF0FF36704700B5EA
:101B9000FEF768FCFFF758FE47F8046D44F20006B4
:101BA000FFF7A6FBFFF71DFC00BDEA1B00002002AB
:101BB00005686269732103CF3288024332800E00C8
:101BC000704700B5FEF74EFCFFF756F9FFF7A5FE8C
:101BD000FFF7DCF947F8046D44F20036FFF788FBA5
:101BE000FFF77FF9FFF7BDFE00BD2A1C00002002B1
:101BF00005686269632103CF3288824332800E0018
:101C0000704700B5FEF72EFCFFF736F9FFF785FEAB
:101C1000FFF7BCF947F8046D44F28036FFF764FB28
:101C2000FFF75FF9FFF79DFE00BD6A1C0000200270
:101C30000568786F722103CF3288424032800E00EF
:101C4000704700B5FEF70EFCFFF716F9FFF765FECB
:101C5000FFF79CF947F8046D44F24006FFF748FB94
:101C6000FFF73FF9FFF77DFE00BDA01C000020023A
:101C700005686269744001CF3688064018BF4FF08E
:101C8000FF36704700B5FEF7EDFBFFF746FE47F85D
:101C9000046D44F20006FFF72BFBFFF7A2FB00BD2B
:101CA000E01C0000200205636269732103CF3278D3
:101CB000024332700E00704700B5FEF7D3FBFFF70A
:101CC000DBF8FFF794FEFFF761F947F8046D44F283
:101CD0000036FFF70DFBFFF704F9FFF7ACFE00BD80
:101CE000201D0000200205636269632103CF327862
:101CF000824332700E00704700B5FEF7B3FBFFF76A
:101D0000BBF8FFF774FEFFF741F947F8046D44F2A2
:101D10008036FFF7E9FAFFF7E4F8FFF78CFE00BD25
:101D2000601D000020020563786F722103CF3278B6
:101D3000424032700E00704700B5FEF793FBFFF78C
:101D40009BF8FFF754FEFFF721F947F8046D44F2C2
:101D50004006FFF7CDFAFFF7C4F8FFF76CFE00BDB1
:101D6000961D0000200205636269744001CF367839
:101D7000064018BF4FF0FF36704700B5FEF772FB04
:101D8000FFF735FE47F8046D44F20006FFF7B0FA9E
:101D9000FFF727FB00BD241E000000000768666CEB
:101DA00061736821300040CF310040CF584B9842DA
:101DB0001ED3584B1940994219D010F00102002A45
:101DC00016D102889A4213D110F10060524A534B47
:101DD0001360534B1360534A012313600180524A2E
:101DE000136813F00103FBD14E4A80231360704740
:101DF00000F0ADFC2A57726F6E67206164647265F3
:101E00007373206F72206461746120666F72207733
:101E1000726974696E6720666C61736820210A00BC
:101E200002F039BC721E000000000E666C6173681F
:101E3000706167656572617365000FB5300040CFF2
:101E4000334B984214D3344A344B1360344B1360F1
:101E5000344A02231360354A1060324A4223136029
:101E6000314A136813F00103FBD12E4A802313601B
:101E70000FBDF01E000000000A6572617365666C9C
:101E800061736800224872B629494FF6FF720388D1
:101E900093421CD047F8046D060047F8046D00F02B
:101EA00056FC10457261736520626C6F636B206134
:101EB0007420200000F0BEFC00F049FC0C2066728B
:101EC0006F6D20466C6173680A00FFF7B6FF023041
:101ED0008842DCD100F03BFC1246696E697368658C
:101EE000642E20526573657420210A0002F06DBCD7
:101EF000341F000000000E6572617365666C6173CB
:101F00006866726F6D0072B6300040CFBBE70000AC
:101F100000500000FFFF000004200240230167453D
:101F2000AB89EFCD102002400C200240142002406B
:101F3000000001006A1F00006202012B01CF361869
:101F4000704700B5FEF78EFA47F8046D43F20006BD
:101F500047F8046DC94E47F8046D41F600068168E4
:101F6000282917D1FEF7BDFF14E0102000006202FF
:101F7000012D01CF861B704700B5FEF773FA47F8B5
:101F8000046D43F6000647F8046DBD4E47F8046D36
:101F900041F60026FEF7A2FA0168282927D14168F8
:101FA000FF290CD840CF40CFFEF7ACFA0E43816832
:101FB00009020E4301F0F3F8FEF745F900BD47F8BA
:101FC000046D0E0000F008FD02CF002E40CF0ED0B1
:101FD00040CF04370E43816856EA0146FEF733F9D5
:101FE000FEF7C0FA56EA032601F008F900BD0437EF
:101FF0000437FEF769FA89018268D2000E4316435E
:10200000FEF721F9FEF7AEFA1E4301F0C8F800BD55
:1020100028200000610202312D00013E704747F880
:10202000046D41F640663DE040200000610202314F
:102030002B000136704747F8046D41F6404631E009
:1020400058200000610202322D00023E704747F81E
:10205000046D41F6806625E07020000061020232C6
:102060002B000236704747F8046D41F6804619E0B0
:102070008A20000061020563656C6C2B0436704792
:1020800047F8046D41F600560CE0BC2000006102E8
:10209000066E6567617465007642704747F8046DA7
:1020A00044F2402600B5FEF7D3F90168C9000E439B
:1020B000FEF758FA1E4301F072F800BDD42000006C
:1020C0006102036E6F74F643704747F8046D44F283
:1020D000C036E7E7EC2000006102037368727608FF
:1020E000704747F8046D40F64006DBE7FC2000002F
:1020F00061020373686C7600704706E012210000ED
:10210000610202322A007600704747F8046D4026CB
:10211000C8E72A21000061020563656C6C73B60094
:10212000704747F8046D8026BCE742210000610239
:1021300002322F007610704747F8046D41F24006D6
:10214000B0E782210000610203616273F017361864
:102150004640704700B5FEF77BF947F8046D00264E
:102160000168C9000E43FEF7FDF91E4301F017F8A0
:1021700047F8046D4DF2005601F011F8FFF78EFF9D
:1021800000BDA0210000420005752F6D6F6401CFD6
:102190003100B0FBF6F67143401A043F38607047D7
:1021A000BE2100004200042F6D6F640001CF31009A
:1021B00090FBF6F67143401A043F38607047D22115
:1021C00000004200036D6F6400B5FFF7EFFF40CFE2
:1021D00000BD122200006202012F01CF90FBF6F633
:1021E000704700B5FEF73EF9FEF76EF9FEF776F997
:1021F00047F8046D234E01680E43816856EA014694
:10220000FEF721F8FEF7AEF956EA032600F0F6FFD6
:1022100000BD262200006100046576656E00012085
:102220003040361870473E2200008100046261731E
:10223000650047F8046D144E70470A0000005422F0
:10224000000000000662696E617279000E4802218A
:10225000016070476A220000000007646563696DD1
:10226000616C09480A21016070478C22000000005F
:10227000036865780448102101607047000010F180
:102280000000B0F1F0F090FBFC4F0020A82200000D
:10229000810009686F6F6B2D656D697447F8046D77
:1022A0007D4E704792230000C42200008100086820
:1022B0006F6F6B2D6B65790047F8046D774E704733
:1022C000B8230000E222000081000A686F6F6B2DC6
:1022D000656D69743F0047F8046D714E7047E223E5
:1022E0000000FE220000810009686F6F6B2D6B6596
:1022F000793F47F8046D6B4E70470E2400001C2395
:10230000000081000A686F6F6B2D70617573650046
:1023100047F8046D644E70477A470000322300008E
:10232000000004656D6974000FB55B4800F026F885
:102330000FBD462300000000036B65790FB55748B9
:1023400000F01CF80FBD58230000000005656D6902
:10235000743F5348006887466A2300000000046BFE
:1023600065793F004F4800688746802300000000E1
:102370000570617573654C4800688746006887463C
:10238000A623000000000B73657269616C2D656DFA
:10239000697400B500F025F8002E40CFFAD0434A0A
:1023A000167040CF00BDCE23000000000A73657296
:1023B00069616C2D6B65790000B500F028F8002E7E
:1023C00040CFFAD047F8046D384A167800BDFC2398
:1023D000000000000C73657269616C2D656D697495
:1023E0003F0000B5FFF7C7FF47F8046D00263048EF
:1023F00001688020014000D0F64300BD4224000067
:1024000000000B73657269616C2D6B65793F00B5D7
:10241000FFF7B1FF47F8046D00262548016820202A
:10242000014000D0F64300BD2249234808602349FB
:102430002348086023494620086023492348086050
:102440007047D0240000000004696E69740000B574
:10245000FFF7EAFF00F07BF93A4D6563726973702C
:102460002D5374656C6C6172697320524120322E59
:10247000342E3120666F722053544D333246313042
:1024800033206279204D61747468696173204B6FE9
:1024900063680A0000BD0000F84F0020F44F0020E0
:1024A000F04F0020EC4F0020E84F0020043801409E
:1024B00000380140181002403D400000040801406F
:1024C000B0040000083801400C3801400C20000026
:1024D000F42400000000076365787065637400B53C
:1024E000386801B40130386000F00BF801BC0670A8
:1024F00040CF00BD6A25000000000661636365707F
:10250000740000B502CF01390022FFF717FF300039
:1025100040CF7F2809D0202819D2092816D00A28B0
:102520001FD00D281DD00828EFD1002AEDD000F0D3
:102530000EF903082008002AE7D0885C013A8023BE
:102540000340E2D040230340F5D0DEE72020B24232
:10255000DBD247F8046D0600FFF7E6FE013288542F
:10256000D3E7160000F0A2F800BD7C250000400073
:102570000374696247F8046D294E70479225000084
:102580008100033E696E47F8046D264E70470000D7
:102590000000B825000082000E63757272656E74CB
:1025A0002D736F757263650047F8046D1E4E70479A
:1025B00000000000C4000020D425000000000973C2
:1025C0006574736F75726365174802CF066041606A
:1025D00040CF7047F2250000000006736F757263EC
:1025E000650047F8046D104E043F70683860366827
:1025F00070472C26000000000571756572790FB5D3
:10260000084800210160FFF7B5FF47F8046D47F85F
:10261000046DC826FFF775FFFFF7D6FF0FBD00005A
:10262000C4000020E44F0020DC4F00207A26000088
:10263000000007636F6D706172650FB5310040CFA8
:1026400001CF884202D040CF00260FBD02CF002824
:1026500010D001380A5C335C412A02D35B2A38BFB0
:102660002032412B02D35B2B38BF20339A42EED06D
:1026700000260FBD0026F6430FBD8E260000000089
:102680000263720000B500F062F8010A00BDA026E6
:102690000000000002626C0047F8046D20267047BD
:1026A000B4260000000005737061636547F8046D8F
:1026B000202639E6D42600000000067370616365A9
:1026C000730000B5002E03DDFFF7F0FF013EFBD1E4
:1026D00040CF00BDE42600005000065B63686172D5
:1026E0005D0005E0FC2600000000046368617200E4
:1026F00000B501F05FFC40CF367800BD0C2700002C
:102700005004012847F8046D292606E0262700001A
:102710005004015C47F8046D002600B501F054FC3C
:10272000043740CF00BD6A2700003000022E22008F
:102730009B4800B547F8046D060000F05EFA47F8C4
:10274000046D222601F040FC00F068FD00BD0AB4D3
:1027500047F8046D7646013E337801210133194074
:102760005B181EEB030E0ABC39E090270000300016
:10277000026322008B48DCE747F8046D7646013E91
:1027800033780121013319405B181EEB030E7047AB
:10279000BA2700003000027322008348C9E747F8D7
:1027A000046D764647F8046D013E36780121731CAE
:1027B00019405B181EEB030E7047D2270000000083
:1027C00005636F756E74013647F8046D013E367807
:1027D0007047FA270000000005637479706501B541
:1027E0003078002807D0013647F8046D3678FFF7B7
:1027F0009BFD0138F7D140CF01BD28280000000023
:10280000047479706500310040CF300040CF00B5CE
:10281000002908D0002247F8046D865CFFF784FD8C
:1028200001329142F7D100BD622800000000046827
:1028300065782E0007B5310040CF20200F220438E4
:1028400047F8046D0E00C6401640092E01D93736F0
:1028500000E03036FFF768FD0028F0D1FFF726FFD3
:1028600007BD72280000000003682E731FB54F4C8F
:102870000EE082280000000003752E731FB54C4C3B
:1028800006E0002900000000022E73001FB5494C2D
:102890004949C91B8908494A106803B40A201060D5
:1028A000FFF755FF08537461636B3A205B0047F8EC
:1028B000046D0E0001F057FDFFF749FF025D200097
:1028C00003BC3E4A106000290AD03D4A106806B495
:1028D00047F8046D0600A04706BC043A0139F5D15B
:1028E000FFF735FF0620544F533A200047F8046D98
:1028F0003600A047FFF72BFF04202A3E0A001FBD29
:10290000C4290000000005776F72647300B5FFF7FB
:102910001EFF010A00F0D5FEFFF719FF09416464AC
:10292000726573733A2047F8046DFFF783FFFFF772
:102930000EFF064C696E6B3A200047F8046D36684E
:10294000FFF778FFFFF703FF07466C6167733A20D4
:1029500047F8046DB688FFF76DFFFFF7F8FE0643F2
:102960006F64653A2000B01D00F0E4FE47F8046D86
:102970000600FFF75FFFFFF7EAFE064E616D653A5E
:10298000200047F8046D0636FFF729FFFFF7DFFE4A
:10299000010A00F0ADFE300040CFBDD040CF00BDF9
:1029A0004E270000782700009E27000035280000F1
:1029B00057430000674300008C020020FC4F0020BA
:1029C00088020020282B000000000D31326269745B
:1029D000656E636F64696E670FB5FF2E04D847F8A4
:1029E000046D5FF0FF360FBD16F0FF10B0420ED140
:1029F0004FF6FF710840310C814208D116F0FF06F6
:102A000056F4805647F8046D5FF0FF360FBD16F0A0
:102A1000FF20B0420FD14FF6FF710840310C8142C8
:102A200009D1360A16F0FF0656F4005647F8046D31
:102A30005FF0FF360FBDFF2231001140300A104019
:102A4000884210D1300C104088420CD1300E10401A
:102A5000884208D116F0FF0656F4405647F8046D38
:102A60005FF0FF360FBD300000210131001850F13A
:102A700000007FF07F020240802A05D01F29F4D396
:102A800047F8046D00260FBD0829F9D3060036F07B
:102A9000800611F00100C001064311F00E00C002D3
:102AA000064311F010008005064347F8046D5FF0FF
:102AB000FF360FBD47F8046DDFF854665FF47041D0
:102AC00010EA0102120116435FF4006110EA0102EC
:102AD000D20316435FF4E06110EA010212011643CB
:102AE000FF2110EA010216431E4387E347F8046DF5
:102AF000DFF820665FF0704110EA0102120B164306
:102B00005FF0006110EA0102520816435FF0E061D5
:102B100010EA0102120B16435FF47F0110EA010272
:102B2000120C16431E4369E38E2B00000000107246
:102B3000656769737465726C69746572616C2C0089
:102B40000FB5330040CF1B02FF2E05D856F40056B8
:102B50001E4300F024FB0FBDFFF73EFF002E40CFC9
:102B600006D0DFF8B40506431E4300F047FB0FBD57
:102B7000F643FFF731FF002E40CF06D0DFF89C056B
:102B800006431E4300F03AFB0FBDF6430BE0EE2B6D
:102B900000000000096D6F76776D6F76742C0FB5AD
:102BA000330040CF1B02300040CFFFF783FF4FF6CA
:102BB000FF7110EA014001D0FFF798FF0FBD0FB57C
:102BC0000136300040CF0023FFF774FFFFF78EFF80
:102BD00006E00FB5013647F8046D0026FFF7B0FF99
:102BE00047F8046D44F2807600F0D9FA0FBD542CFA
:102BF000000000000563616C6C2C0FB5330000F021
:102C00005AFE300040CF1B1A043BDFF81415194060
:102C1000002906D0DFF80C25914202D0BDE80F4014
:102C2000D7E740CF5B08DFF8000540F2FF7119409D
:102C30000843DB0A40F2FF311940090408439B0AAC
:102C400013F001018906084347F8046D060000F0FF
:102C5000D5FA0FBD8A2C00000000086C69746572FB
:102C6000616C2C0008B547F8046D4FF6470600F07C
:102C700096FA47F8046D46F6045600F090FA47F8C5
:102C8000046D0626FFF75CFF08BDAE2C00000000B7
:102C9000066372656174650000B500F033F842F6B2
:102CA000CB40804747F8046DBEF1010600BDF62C0D
:102CB0000000200005646F65733E42F6CB408047FC
:102CC00047F8046DBEF10106704747F8046DBEF188
:102CD0000106DFF858241368DFF85414096802204D
:102CE000084000D0023102311160FFF768FF136025
:102CF00000F0C4F900BD382D00000000073C6275EB
:102D0000696C647300B500F06BFB00F0D4FD022029
:102D1000064040CF04D047F8046D362600F03FFA55
:102D200047F8046D4BF2005600F039FA47F8046D8D
:102D30000A2600F0A6FA00BD442D00005000035BF7
:102D4000275D03E05C2D00000000012700B501F0C5
:102D500031F900F045FD300040CF00BD922D00005C
:102D6000300008706F7374706F6E650000B5FFF708
:102D7000EDFF47F8046D060039683E600E46FFF728
:102D800071FFFFF76FFF47F8046DEA4EFFF735FF5D
:102D900000BDE82D0000000007696E6C696E652CAF
:102DA00000B54BF200514BF6005244F2707330887C
:102DB000884208D0904208D0984206D047F8046D67
:102DC000060000F0ECF90236F1E740CF00BD0EB48A
:102DD0004BF6005244F2707301880230914201D0E8
:102DE0009942F9D10EBC7047FE2D0000000004721C
:102DF00065742C0047F8046D4BF60056CFE10C2E9D
:102E000000003000046578697400F3E7242E0000A8
:102E10003000077265637572736547F8046DC44EC0
:102E20003668EAE63C2E0000810005737461746523
:102E300047F8046DC04E7047000000004E2E0000A1
:102E40000000015DBC480021C943016070475E2E4F
:102E500000001000015BB8480021016070477E2E21
:102E600000000000013A00B5B448076000F0B8FA6D
:102E7000B14801210160B2480021016000BDF02E7F
:102E800000003008013B00B5AC480168B9420ED0E3
:102E9000FFF75DFC1520537461636B206E6F742027
:102EA00062616C616E6365642E0A01F0F4BBA24836
:102EB0000068411C10D00B2805D847F8046D40F677
:102EC000200600F00AF947F8046D44F2707600F02D
:102ED00066F901F0E6FA05E047F8046D4BF6005696
:102EE00000F05DF900F0CAF893480021016000BDD0
:102EF000042F000000000765786563757465300075
:102F000040CF87461C2F0000100009696D6D656475
:102F10006961746547F8046D1026DEE0322F000009
:102F2000500006696E6C696E650047F8046D2026D6
:102F3000D3E04C2F000010000B636F6D70696C655F
:102F40006F6E6C7947F8046D3026C6E0662F00007E
:102F500050000A302D666F6C6461626C650047F842
:102F6000046D4026B9E0802F000050000A312D6624
:102F70006F6C6461626C650047F8046D4126ACE0DB
:102F80009A2F000050000A322D666F6C6461626CEB
:102F9000650047F8046D42269FE0B42F0000500002
:102FA0000A332D666F6C6461626C650047F8046DCE
:102FB000432692E0CE2F000050000A342D666F6C3D
:102FC0006461626C650047F8046D442685E0E82F73
:102FD000000050000A352D666F6C6461626C6500FC
:102FE00047F8046D452678E00230000050000A36AC
:102FF0002D666F6C6461626C650047F8046D46264F
:103000006BE01C30000050000A372D666F6C646165
:10301000626C650047F8046D47265EE04C300000A6
:10302000000008636F6E7374616E740000B500F089
:10303000D7F9FFF717FE47F8046D44F2707600F0F9
:10304000AEF8FFF78CFF00F019F800BD6E300000FD
:1030500000000932636F6E7374616E7400B500F026
:10306000BFF939683E600E46FFF7FCFDE1E7CA3064
:103070000000000006736D756467650000B52B489D
:1030800001682A4A91421AD202390A882D4B9A4283
:1030900004D147F8046D2C4E00F081F800F06EF872
:1030A0002A48006847F8046D060029490968043178
:1030B0001E4A1368116000F072F8136000BD00F042
:1030C0005DF847F8046D002608E054310000000068
:1030D00008736574666C6167730000B51348016816
:1030E000124A914205D2194801683143016040CF2C
:1030F00000BD320040CF1648006804300188114BF3
:10310000994201D1110000E01143018000BD00008F
:10311000000040F20000C0F200005FF000007FF00D
:103120000100C0FF0000C0FF00F800F00000002018
:1031300014000020A6430000D84F002010000020FB
:103140005C000020FFFF00000000000020000020C5
:103150000400002070310000410007616C69676E57
:103160006564012030403618022030403618704720
:1031700094310000000005616C69676E00B58B48F2
:1031800001680220014004D047F8046D002600F0D9
:1031900006F800BDD8310000000002682C000FB511
:1031A000B6B283480168002902D0013100D0016025
:1031B0007E4801687D4A914205D247F8046D0E00B1
:1031C000FEF7F0FD02E0320040CF0A8047F8046DC0
:1031D000022600F056F80FBDF23100000000012C6D
:1031E00000B547F8046DFFF7DAFF360CFFF7D7FF9D
:1031F00000BD0E3200000000033E3C2C00B547F835
:10320000046D360CFFF7CBFFFFF7C9FF00BD763228
:103210000000000007737472696E672C07B5FF2108
:10322000314040CF300040CF002905D147F8046D30
:103230000026FFF7B4FF07BD47F8046D0678360295
:103240000E43FFF7ACFF0130013902290AD347F8DA
:10325000046D4678360202781643FFF7A0FF02306D
:103260000239F2E7002900D107BD47F8046D06785E
:10327000FFF795FF07BDD0320000000005616C6CC0
:103280006F744A480168494A91420FD2320040CFD8
:103290008918484A914219D3FFF759FA0B466C61D5
:1032A00073682066756C6C0A01F0F5B9320040CF86
:1032B0008918414A1268914208D3FFF748FA095227
:1032C000616D2066756C6C0A01F0E5B901607047AC
:1032D000F4320000000009666F7267657472616DF8
:1032E00000B500F025F831483449016034483549CB
:1032F000016000BD1C33000000000D636F6D70693C
:103300006C65746F72616D3F47F8046D0026274845
:1033100000682649884248D3F64370473C33000092
:1033200000000C636F6D70696C65746F72616D0085
:103330001E4800681D49884211D37047D0330000F1
:1033400000000E636F6D70696C65746F666C6173FD
:103350006800164800681549884200D2704718482E
:10336000194902680B680A6003601048174902682F
:103370000B680A60036010480068834215D300B5EB
:10338000FFF7E5F923205661726961626C6573206D
:10339000636F6C6C69646520776974682064696325
:1033A00074696F6E6172790A00BD70470000002079
:1033B000D84F002000000100240000208C030020D2
:1033C00004000020500100001C0000201800002014
:1033D000BA34000000000828637265617465290032
:1033E00000B500F0E7FD002E0ED1FFF7B0F9152073
:1033F000437265617465206E65656473206E616DEE
:103400006520210A01F047B9386847F8046D043F88
:10341000386000F09EF940CF002E40CF11D03868C0
:1034200047F8046D043F3860FFF791F9095265646D
:103430006566696E6520FFF7E6F9FFF788F9022EE9
:103440002000FFF79BFE00F036FA8E4800688D4999
:1034500088421CD28C480021016047F8046D062682
:10346000FFF70FFFFDF7A8FDFFF7D8FE87480168BB
:103470000A68874B9A4207D1824A1368116047F85D
:10348000046DFFF7ADFE1360066040CF10E07F488B
:1034900047F8046D0668FFF7A3FE47F8046D7D4EFC
:1034A000FFF77DFE7948310040CF0160FFF7B6FE9F
:1034B000744801687848016000BDD2340000000003
:1034C000087661726961626C650047F8046D0126D7
:1034D00013E0EA340000000009327661726961622B
:1034E0006C6547F8046D022607E0C4350000000053
:1034F000096E7661726961626C6500B5FFF770FFF5
:10350000604801685F4A914234D20F200640B20001
:1035100062480168891A624A91420BD2FFF717F993
:103520000F4E6F7420656E6F7567682052414D0AAB
:1035300001F0B1B8016047F8046D0E00FFF792FB8F
:1035400047F8046D44F27076FFF729FE300040CF53
:103550000200002805D00E600431FFF741FE01385B
:10356000F9D147F8046D80261643FFF7B6FDFFF743
:1035700085FD00BD00F09FF90220064040CF04D138
:1035800047F8046D3626FFF70AFE47F8046D454EEE
:10359000FFF734FE47F8046D434EFFF72FFE47F860
:1035A000046D44F27076FFF7FAFD300040CF00283A
:1035B00003D0FFF715FE0138FBD1FFF7D0FCFFF772
:1035C0005DFD00BDAC3600000000076275666665F3
:1035D000723A00B5FFF704FF012030403618022090
:1035E0003040361827480168264A914228D22B4895
:1035F0000168891B2A4A91420BD2FFF7A8F80F4EA7
:103600006F7420656E6F7567682052414D0A01F036
:1036100042B8016047F8046D0E00FFF723FB47F83E
:10362000046D44F27076FFF7BAFDFFF7D9FD47F855
:10363000046D40F24016FFF750FDFFF71FFD00BD7F
:1036400000F039F90220064040CF04D147F8046D5C
:103650003626FFF7A4FD47F8046D124EFFF7CEFDA6
:1036600047F8046D104EFFF7C9FD47F8046D44F2AA
:103670007076FFF794FDFFF704FEFFF770FCFFF78D
:10368000FDFC00BD00000020200000200400002000
:10369000FFFFFFFFFFFF00001400002024000020B8
:1036A0008C0300203E60043F02367E46DA3600007E
:1036B00000000F64696374696F6E6172797374617D
:1036C00072744E4800684D4947F8046D884201D233
:1036D0004B4E70474B4E3668704714370000000061
:1036E0000E64696374696F6E6172796E65787400D7
:1036F00003B531684448814207D08879FF2804D057
:103700000E0047F8046D002603BD47F8046D00263F
:10371000F64303BD4637000000000A736B697073FF
:103720007472696E67003178013101220A4089188C
:103730007618704706B40178013101220A408918D1
:10374000401806BC70475837000000000466696ED8
:1037500064002E48006887467437000081000968BD
:103760006F6F6B2D66696E6447F8046D284E704765
:1037700082370000183800000000062866696E6471
:10378000290030B500220023350040CF340040CF5F
:10379000FFF797FF1F48B188884217D047F8046D9C
:1037A0000636FFF710F847F8046D260047F8046D59
:1037B0002E00FEF742FF002E40CF07D0B01DFFF7CE
:1037C000B9FF02000B000D48824204D2FFF790FFC0
:1037D000300040CFDED0160047F8046D1E0030BD2B
:1037E00000B53100386803B4FFF7B3FF03BC3A6893
:1037F000002A01D100F003FF00BD000000000020FE
:103800005001000004000020FFFFFFFFD44F002004
:10381000D44F0020FFFF0000723800000000066354
:103820006A756D702C00320040CF310040CF8B1B89
:10383000043BDA49194000290DD0D94881420AD009
:10384000FEF785FF0D4A756D7020746F6F206661FD
:10385000720A00F020BF5B10FF210B4013433000C1
:103860001E0000B5CF4A13681060FFF798FC136084
:1038700000BDAA3800000000056A756D702C31008B
:1038800040CF300040CF0B1A043BC74919400029F4
:1038900002D0C64A9142D3D15B10C54A134053F4BB
:1038A000604347F8046D1E00DBE7C03800000000ED
:1038B00004686572650047F8046DBA4E3668704753
:1038C000F639000000000D666C6173687661722D38
:1038D0006865726547F8046DB64E3668704700B586
:1038E00047F8046D42F60066FFF759FC47F8046D8F
:1038F0004CF64076FFF753FC00BDDCE700B500F066
:103900003AF839683E600E4647F8046D4DF20016ED
:10391000FFF789FF00BD00B500F02DF839683E6063
:103920000E4647F8046D4DF20076FFF77CFF00BDB0
:1039300000B5FFF7D4FF00F01EF839683E600E4670
:1039400047F8046D4DF20006FFF76DFF00BD00B5AE
:1039500000F011F839683E600E46FFF790FF00BD99
:1039600000B5FFF7BCFFFFF7A6FF47F8046D02267E
:10397000FFF787FC00BD00B5FFF79DFF47F8046D1A
:103980000226FFF77EFC00BD00B5FFF794FFFFF7AE
:1039900076FF00BD00B5FFF78EFF47F8046D4DF2CE
:1039A0000006FFF740FF00BD00B5FFF784FF47F8B2
:1039B000046D4DF20016FFF736FF00BD00B5FCF7B1
:1039C00047FDFCF777FCFCF77AFCFCF77DFC81688F
:1039D000282901D1FCF782FDFCF776FD47F8046D3C
:1039E00042F6000609020E43FFF7D9FBFCF72BFC59
:1039F000FCF754FC00BD223A0000300004746865F6
:103A00006E00052E01D140CFBEE7F1B200296DD185
:103A100000B5FFF750FF39683E600E46FFF703FF21
:103A200000BD3E3A0000300004656C73650000B5CF
:103A300000F036F8FCF7D7FDFFF7E3FF00BD943A3E
:103A4000000030060269660000B5FFF789FF47F8FD
:103A5000046D4DF2000600BD00B5FCF78CFDFDF7CE
:103A600043FE816A002907D002B4FCF717FCFFF778
:103A700082FF47F8046D40BDFFF7A0FFFFF71BFF73
:103A800047F8046D0226FFF7FCFB47F8046D4DF282
:103A9000000600BDAE3A0000300005616865616453
:103AA00000B5FFF768FF47F8046D052600BDC83A6A
:103AB00000003000067265706561740000B500F0AA
:103AC0005BF8FFF79EFF00BD0C3B0000300605775A
:103AD00068696C6500B5FFF7B7FFFCF784FD00BDB2
:103AE00000B5FFF7B9FFFCF77EFD00BDFEF72FFE26
:103AF000175374727563747572657320646F6E27E3
:103B000074206D617463680A00F0C5BD6C3B0000F1
:103B1000300605756E74696C012EE7D140CF07E75A
:103B20007047012EE2D140CF00B5FDF7DDFD816A7F
:103B300000290DD002B4FCF7B1FBFFF71CFF396878
:103B40003E600E4647F8046D40BCFFF76CFE00BDBA
:103B5000FFF734FFFFF70FFF39683E600E4647F866
:103B6000046D4DF20006FFF75EFE00BD803B0000D5
:103B7000300005616761696E012EB7D140CFE6E67E
:103B8000B83B0000300005626567696E00B5FFF75D
:103B9000B4FE47F8046D012600BD000001FFFFFFE1
:103BA00000FFFFFF0000002001F8FFFF00F8FFFF0B
:103BB000FF07000024000020D23B00002002016B20
:103BC00047F8046D029E704747F8046D49F60206F7
:103BD0000BE0003C00002002016A47F8046D009EE3
:103BE000704747F8046D49F6000600B5FCF721FB65
:103BF000FCF7FAFB03601B021E43FFF7D0FA00BD7F
:103C00002C3C00002002016947F8046D2600704733
:103C100000B547F8046D40F22006FCF70AFBFCF7FC
:103C2000E3FB03601E43FFF7BAFA00BD6A3C0000E5
:103C30003000056C6561766500B5754801683B002C
:103C4000043F1A68043B1A6008338B42F9D103B46D
:103C5000FFF791FE03BC330040CF04390B600160D5
:103C600004390A6801320A6000BD7C3C0000200073
:103C700006756E6C6F6F700030BC7047B43C00000E
:103C80003000052B6C6F6F70032E00D02EE740CFF5
:103C900000B547F8046D5F4EFFF782F8FFF73BFE73
:103CA0001AE014F10044641BA41940CF2C44A4F181
:103CB00000447047F63C00003000046C6F6F7000E9
:103CC000032E00D012E740CF00B547F8046D524EE6
:103CD000FFF766F8FFF712FE00F052F94C4831008A
:103CE00040CF016047F8046D4C4EFFF759F800BD16
:103CF0000134AC4270473E3D0000300202646F0068
:103D000000B547F8046D464EFFF74AF84048016891
:103D100047F8046D0E0047F8046D00260760FFF7B2
:103D2000ECFD47F8046D032600BD00B500F02FF848
:103D3000ECE730B4340040CF350040CF7047243E2C
:103D400000003002033F646F00B547F8046D344E45
:103D5000FFF726F847F8046D44F2AC26FFF71FFA88
:103D60002B48016847F8046D0E00FFF704FE01368A
:103D700047F8046D012626480760FFF7BEFD47F8A7
:103D8000046D032600BD00B500F001F8E2E700B5C0
:103D9000FCF7F1FBFCF766FBFCF78CFAFCF78FFAFB
:103DA000FCF792FA47F8046D4BF23046FFF7F7F94B
:103DB0000168282908D047F8046D40F20406C900BC
:103DC0000E43FFF7ECF907E047F8046D466847F843
:103DD000046D0426FEF7B4FE8168282908D047F850
:103DE000046D40F20506C9000E43FFF7D8F907E05D
:103DF00047F8046DC66847F8046D0526FEF7A0FE77
:103E0000FCF721FAFCF71FFAFCF768FA00BD000086
:103E10000C000020A23C0000F03C0000783C0000B8
:103E2000323D0000443E00003000046361736500D1
:103E300000B5FCF7A0FB47F8046D002647F8046DB9
:103E4000082600BD5A3E00003000033F6F667148EF
:103E500009E0013EB64140CF7047203F00003002EC
:103E6000026F66006C48082E00D03FE640CF00B5D8
:103E700047F8046D0600FEF793FFFFF77CFD3968F5
:103E80003E600E46013647F8046D092647F8046D7A
:103E90004CF64076FFF783F900BD082E00D025E6EA
:103EA00040CF00B5FCF7DEFAFCF704FAFCF707FA9E
:103EB000FCF70AFA47F8046D44F28026FCF70EFB83
:103EC0000E430268282A1ED14268FF2A08D840CF34
:103ED00047F8046D42F60006164309020E4314E04B
:103EE00047F8046D4668FEF777FD04CF002E40CFFB
:103EF00006D04A4E164356EA0146FFF77FF906E020
:103F0000FCF7E2FA0A00D2001643FFF748F9FCF783
:103F10009AF9FCF7E3F9B0E7300040CFB0427047C0
:103F2000563F0000300005656E646F66092E00D0B4
:103F3000DCE540CF00B540B440CFFFF71CFD396849
:103F40003E600E46FFF730FD47F8046D40BC47F871
:103F5000046D082600BDA83F0000300007656E64B0
:103F600063617365082E00D0C0E540CF00B547F807
:103F7000046D4CF64076FFF712F900F001F800BD31
:103F800000B5300040CF00280DD003B401213140EE
:103F9000002903D0013EFFF7FDFC01E0FFF7F4FC30
:103FA00003BC0138EFE700BDBC3F00000000057412
:103FB0006F6B656E47F8046D202605E02440000015
:103FC000000005706172736510B5FEF70AFB3100E1
:103FD00040CF300040CF124A12688418202E07D1FB
:103FE00091420FD0835CB34202D101328418F7E7CB
:103FF000914207D0835C0132B342F9D18618361B57
:10400000013E01E08618361B043F3C600448026014
:1040100010BD0000523E0000183F0000000FB0F13C
:10402000E44F002062400000000005646967697485
:10403000CF4B1B68303E0BD30A2E0BD3073E0A2E04
:1040400006D3242E06D3203E0A2E01D3242E01D3DC
:10405000002670479E42FBD247F8046D0026F643C7
:1040600070476C4100000000066E756D626572005D
:104070003FB5310040CF701E0126012204B4BC4B75
:104080001B680024002500293CD00130013902784A
:104090002D2A04D101B00022D24304B4F3E7232A2D
:1040A00001D10A23EFE7242A01D11023EBE7252AC7
:1040B00001D10223E7E72E2A01D10226E3E72C2AC9
:1040C00036D047F8046D1600FFF7B4FF002E40CF3E
:1040D0002BD047F8046D260047F8046D2E0047F8F2
:1040E000046D1E0047F8046D00260FB4FCF74BFC6E
:1040F0000FBC350040CF340040CF0022A4195541F9
:1041000040CFC0E704BC002A04D50022E443ED43BD
:104110000134554133002600012B02D047F8046DCD
:104120002E0047F8046D1E003FBD01B000263FBDC4
:104130002500002402260029E4D0425C01392E2A01
:10414000F9D047F8046D1600FFF774FF002E40CF3A
:10415000EBD0043F3C6047F8046D1E000FB4FCF741
:10416000C1FC0FBC340040CF40CFE4E78E410000DB
:104170000000062E6469676974000A2E01D2303689
:104180007047242E01D23736704723267047C4412A
:104190000000000004686F6C6400330040CF754875
:1041A00001783F290DD2013101704018012907D053
:1041B0000138027801300270013801390129F7D144
:1041C00003707047E4410000000005686F6C643CB8
:1041D000330040CF674801783F2902D20131017096
:1041E00043547047FC4100000000047369676E008F
:1041F000002E01D440CF70472D26CEE7104200009C
:10420000000002233E005B480678013038607047AA
:104210002842000000000366235310B5202400F05C
:1042200008F8013CFBD110BD4A42000000000266C4
:10423000230000B547F8046D4D4E3668FCF765FB6A
:10424000FFF79BFFFFF7C4FF00BD664200000000C0
:104250000223530000B500F00AF8002EFBD13868A5
:104260000028F8D100BD924200000000012300B5F3
:1042700047F8046D3E4E366847F8046D0026FCF79B
:1042800050FCFCF7B0F940CFFFF777FFFFF785FF51
:1042900000BDA44200000000023C2300354800217C
:1042A00001707047B6420000000002662E0047F819
:1042B000046D202604E004430000000003662E6E17
:1042C00000B510B4340040CFFCF748FEFCF7A2FA6A
:1042D00047F8046D0026FFF7E1FFFFF7BBFF40CF73
:1042E0002C26FFF775FF002C03D0FFF7A2FF013C3F
:1042F000FBD110BC40CFFFF77BFF47F8046D47F8B8
:10430000046D1CE01A43000000000375642E00B524
:10431000FFF7C4FFFFF79EFF11E04C4300000000D1
:1043200002642E0000B5FCF719FEFCF773FAFFF7E4
:10433000B5FFFFF78FFFFCF723FEFFF759FFFFF7ED
:1043400062FFFEF760FAFEF7B1F900BD5E430000C0
:10435000000002752E0047F8046D0026D7E72A45B5
:1043600000000000012E47F8046DF617DAE70000A0
:10437000FC4F00208400002030B5D74C2568002D6C
:1043800001D13D00256030BD30B5D34C3D002560E6
:1043900030BD30B5D04C0025256030BDCE4B1B68FC
:1043A000DB1B9B08704700B5310040CFCB4808406D
:1043B00002D000F0A2F800BDC948084001D1FDF7C5
:1043C0004EF9320040CFFFF7D7FFC648084003D070
:1043D00047F8046D160000BDFFF7E0FF802008409D
:1043E00006D14020084009D00F200840834205D361
:1043F00047F8046D1600FEF782FD00BDBA4808407C
:1044000014D0FBF7BAFE47F8046D160047F8046DA8
:104410000E0000F030F81000FEF7D9FC421CB34843
:104420009047FFF7B1FFFBF7B7FE00BDFBF7A5FE16
:1044300047F8046D160047F8046D0E0000F01BF8F5
:10444000FBF72CFFFFF7A5FFA948084001D1FCF7B7
:1044500092F847F8046D160010220A4002D0FEF7C9
:104460004EFD00BD20220A4002D0FEF799FC00BD9F
:10447000FEF7C3FB00BD0FB5320040CF330040CF85
:104480009C480168062907D2062041439A484018F3
:1044900003801B0C438082809648016801310160D3
:1044A0000FBD0FB59348016806291FD892480139FE
:1044B0001DD047F8046D0E00FEF771FE47F8046D3D
:1044C0000688FEF76CFE47F8046D4688FEF767FE27
:1044D00047F8046D8688FEF762FE06300139EDD19B
:1044E00047F8046D41F20006FEF7F7FD0FBD47F8EF
:1044F000046D4026FEF7F1FD0FBD00B5300040CF42
:10450000FEF765FC0188023047F8046D0688428892
:104510001204164347F8046D868803B4FFF743FF7F
:1045200003BC06300139EFD100BD72450000000028
:10453000086576616C756174650000B5FEF751F829
:1045400001CF01B440B440CF6C48016802B40021EF
:104550000160FEF739F800F014F8684802BC016009
:1045600047F8046D40BC01BC043F3860FEF72CF8EE
:1045700000BD6E460000000009696E7465727072BD
:10458000657400B55E4887420BD9FEF7E0F810531A
:104590007461636B20756E646572666C6F770A0078
:1045A00079E0584887420AD2FEF7D1F80F53746178
:1045B000636B206F766572666C6F770A6BE0FFF74E
:1045C000DBFEFFF7F7FC002E02D1043740CF00BD21
:1045D000386847F8046D043F3860FFF7BAF83100D7
:1045E00040CF320040CF002A15D138683100FDF7A6
:1045F00036F8FFF73DFD320040CF002AC2D1FEF76A
:1046000006F9FEF7A4F80C206E6F7420666F756EC5
:10461000642E0A003FE03C4B1B68002B1CD1FFF7C7
:10462000B8FE30230B40302B0ED1FEF7ECF8FEF72E
:104630008EF81220697320636F6D70696C652D6F41
:104640006E6C792E0A0026E0043740CF47F8046DDF
:104650001600FEF754FC95E7043740CF47F8046D89
:10466000160047F8046D0E00FFF79DFE8AE78A46A4
:104670000000810009686F6F6B2D7175697447F8D0
:10468000046D224E7047C246000020470000000023
:10469000047175697400DFF878D0194F1D480A213C
:1046A00001601948002101600B480160FBF73DFEE5
:1046B00012480160184801601849416013480068B9
:1046C0008746FDF79CFFFFF75CFFFEF740F80520EB
:1046D0006F6B2E0AF5E700000800002000100000B4
:1046E000000400000020000000020000280000205C
:1046F000000800005C00002060000020E44F002063
:104700008C0200208C010020D84F0020D04F0020C8
:104710008C030020FC4F0020DC4F0020C400002050
:104720003A47000000000565696E743F47F8046D64
:10473000EFF31086013EB64170474A470000200063
:104740000465696E740062B670475A470000200025
:104750000464696E740072B67047704700002000F0
:1047600004697073720047F8046DEFF305867047B3
:104770007C4700000000036E6F707047BE4700006A
:10478000000009756E68616E646C656400B5FDF7C4
:10479000DEFF14556E68616E646C656420496E744A
:1047A000657272757074200047F8046DEFF305862A
:1047B000FEF740F8FDF7CBFF02210A0000BDD44709
:1047C00000000000057265736574DFF80807DFF804
:1047D000081701600048000081000B6972712D7399
:1047E00079737469636B47F8046DDFF8F06670479E
:1047F0008C47000044F6CC70C2F200000068874687
:104800002A4800008100096972712D6661756C7417
:1048100047F8046DDFF8C86670478C47000044F61F
:10482000C870C2F20000006887465A480000810044
:104830000E6972712D636F6C6C656374696F6E00C5
:1048400047F8046DDFF89C6670478C47000044F61B
:10485000C470C2F2000000688746824800008100F0
:10486000076972712D72746347F8046DDFF878661A
:1048700070478C47000044F6C070C2F20000006828
:104880008746AC4800008100096972712D65787413
:10489000693047F8046DDFF8546670478C470000B4
:1048A00044F6BC70C2F2000000688746D64800009B
:1048B0008100096972712D657874693147F8046D5A
:1048C000DFF82C6670478C47000044F6B870C2F2DF
:1048D0000000006887460049000081000969727184
:1048E0002D657874693247F8046DDFF80866704703
:1048F0008C47000044F6B470C2F20000006887469E
:104900002A4900008100096972712D657874693344
:1049100047F8046DDFF8E06570478C47000044F607
:10492000B070C2F200000068874654490000810060
:10493000096972712D657874693447F8046DDFF880
:10494000BC6570478C47000044F6AC70C2F20000B2
:10495000006887467C4900008100076972712D61FB
:10496000646347F8046DDFF8986570478C47000072
:1049700044F6A870C2F2000000688746A64900000D
:104980008100096972712D657874693547F8046D85
:10499000DFF8706570478C47000044F6A470C2F2DF
:1049A000000000688746D249000081000B697271DF
:1049B0002D74696D3162726B47F8046DDFF84865DC
:1049C00070478C47000044F6A070C2F200000068F7
:1049D0008746FE49000081000A6972712D74696D75
:1049E0003175700047F8046DDFF8206570478C471B
:1049F000000044F69C70C2F20000006887462A4A14
:104A0000000081000B6972712D74696D31747267D9
:104A100047F8046DDFF8F86470478C47000044F6EF
:104A20009870C2F2000000688746564A0000810074
:104A30000A6972712D74696D3163630047F8046D02
:104A4000DFF8D06470478C47000044F69470C2F2DF
:104A5000000000688746804A000081000869727182
:104A60002D74696D320047F8046DDFF8AC6470474F
:104A70008C47000044F69070C2F200000068874640
:104A8000AA4A00008100086972712D74696D3300B3
:104A900047F8046DDFF8846470478C47000044F6E3
:104AA0008C70C2F2000000688746D44A0000810082
:104AB000086972712D74696D340047F8046DDFF870
:104AC000606470478C47000044F68870C2F20000B2
:104AD00000688746004B000081000A6972712D69E9
:104AE00032633165760047F8046DDFF8386470474B
:104AF0008C47000044F68470C2F2000000688746CC
:104B00002C4B000081000A6972712D693263316596
:104B1000720047F8046DDFF8106470478C4700009E
:104B200044F68070C2F2000000688746564B0000D1
:104B300081000A6972712D6932633265760047F827
:104B4000046DFA4E70478C47000044F67C70C2F248
:104B5000000000688746804B000081000A6972717E
:104B60002D6932633265720047F8046DF04E70476C
:104B70008C47000044F67870C2F200000068874657
:104B8000A84B00008100086972712D7370693100B3
:104B900047F8046DE74E70478C47000044F6747088
:104BA000C2F2000000688746D04B0000810008690F
:104BB00072712D737069320047F8046DDE4E7047D4
:104BC0008C47000044F67070C2F20000006887460F
:104BD000FA4B000081000A6972712D75736172745D
:104BE000310047F8046DD54E70478C47000044F6FD
:104BF0006C70C2F2000000688746244C00008100FF
:104C00000A6972712D7573617274320047F8046D10
:104C1000CB4E70478C47000044F66870C2F200002B
:104C2000006887464E4C000081000A6972712D753C
:104C300073617274330047F8046DC24E70478C473D
:104C4000000044F66470C2F2000000688746784CA9
:104C5000000081000A6972712D6578746931300035
:104C600047F8046DB84E70478C47000044F66070FA
:104C7000C2F2000000688746A44C000081000C6965
:104C800072712D727463616C61726D0047F8046D0E
:104C9000AE4E70478C47000044F65C70C2F20000D4
:104CA00000688746CE4C000081000B6972712D753B
:104CB0007362776B757047F8046DA54E70478C472B
:104CC000000044F65870C2F2000000688746F64CB7
:104CD00000008100086972712D74696D350047F814
:104CE000046D9C4E70478C47000044F65470C2F22D
:104CF0000000006887461E4D00008100086972713F
:104D00002D737069330047F8046D934E70478C47DC
:104D1000000044F65070C2F2000000688746464D1D
:104D200000008100096972712D756172743447F851
:104D3000046D8A4E70478C47000044F64C70C2F2F6
:104D40000000006887466E4D00008100096972719D
:104D50002D756172743547F8046D814E70478C472C
:104D6000000044F64870C2F2000000688746964D85
:104D700000008100086972712D74696D360047F872
:104D8000046D784E70478C47000044F64470C2F2C0
:104D9000000000688746BE4D0000810008697271FE
:104DA0002D74696D370047F8046D6F4E70478C475E
:104DB000000044F64070C2F2000000688746E64DED
:104DC00000008100096972712D757362667347F87E
:104DD000046D664E70478C47000044F63C70C2F28A
:104DE00000000068874600500000FFFF182D2D2DA1
:104DF00020466C6173682044696374696F6E6172E8
:104E000079202D2D2D005A4885465A4F2A265A487A
:104E10005749016059485A49016047F8046D584E96
:104E2000584DB188584B994224D0584B0B400AD06A
:104E3000B01DFEF77FFCFDF7CAFF03884088000421
:104E40000343ED1A16E080230B4013D00F231940C3
:104E500089006D1AB01DFEF76DFCFDF7B8FF47F82D
:104E6000046D060047F8046D2E0047F8046D0E002F
:104E7000FCF7BAFCFEF73CFC300040CFD1D04448F0
:104E8000066040CF43480560434844493E4A884253
:104E900004D0023803889342F9D0023040490860B8
:104EA000404800210160FBF740FA47F8046D3E4E90
:104EB00047F8046D0426FEF74CFC40CF002E03D0CB
:104EC000FEF71DF8FFF7FABB40CFFFF7E4BB696EB2
:104ED000697400000CED00E00400FA05CC4F0020DE
:104EE000C84F0020C44F0020C04F0020BC4F0020FE
:104EF000B84F0020B44F0020B04F0020AC4F00202E
:104F0000A84F0020A44F0020A04F00209C4F00205D
:104F1000984F0020944F0020904F00208C4F00208D
:104F2000884F0020844F0020804F00207C4F0020BD
:104F3000784F0020744F0020704F00206C4F0020ED
:104F4000684F0020644F0020604F00205C4F00201D
:104F5000584F0020544F0020504F00204C4F00204D
:104F6000484F0020444F0020404F00203C4F00207D
:104F70008C0300208C020020000000200400002090
:104F80005001000000500020FFFF00000001000061
:104F90001C00002024000020000001000050000040
:104FA0001800002008000020CE4E0000FFFFFFFF89
:1050000030500000000006636869706964004FF268
:105010008070C1F6FF70836EC26E016F47F8046D39
:1050200047F8043D47F8042D47F8041D0326704750
:1050300058500000000004687769640000B5FFF76D
:10504000E6FF30B40124350040CF08CF5E40013484
:10505000AC42FAD130BC00BD885000002018086670
:105060006C6173682D6B62004FF2C070C1F6FF7007
:10507000038C47F8046D1E4670470200E0F7FF1FDF
:105080000020161900002002C450000000000E6627
:105090006C6173682D7061676573697A65004FF2A2
:1050A000C070C1F6FF70068C802E00B540CF04DCC6
:1050B00047F8046D5FF4806603E047F8046D5FF421
:1050C000006600BDEC5000006118036269740123A2
:1050D000B3401E4670470300010000000020DA0EB6
:1050E000000062027C120000620200000851000011
:1050F0004000044146494F0047F8046D40F2000665
:10510000C4F2010670470000285100004000094128
:1051100046494F2D4D41505247F8046D40F2040668
:10512000C4F20106704700004051000040000352E5
:10513000434347F8046D41F20006C4F2020670478B
:105140005C5100004000065243432D43520047F893
:10515000046D41F20006C4F2020670477C51000063
:105160004000085243432D434647520047F8046D20
:1051700041F20406C4F20206704700009C51000090
:1051800040000A5243432D414842454E520047F8E1
:10519000046D41F21406C4F202067047BC510000CF
:1051A00040000B5243432D41504232454E5247F886
:1051B000046D41F21806C4F202067047DC5100008B
:1051C00040000B5243432D41504231454E5247F867
:1051D000046D41F21C06C4F202067047F85100004B
:1051E000400005464C41534847F8046D42F2000622
:1051F000C4F2020670470000185200004000094641
:105200004C4153482D41435247F8046D42F2000689
:10521000C4F2020670470000845200000000053707
:10522000324D487A42F20000C4F2020012230360B9
:1052300041F20000C4F20200036853F480330360BB
:1052400000B541F20000C4F20200036813F4003319
:105250005B1EF6D341F20000C4F2020048F20243A2
:10526000C0F21D034360036853F08073036041F292
:105270000000C4F20200036813F000735B1EF6D353
:1052800000BD0000AC52000081000C632C636F6C09
:105290006C656374696F6E0047F8046D44F6387688
:1052A000C2F2000670470000000000000453000036
:1052B000000002632C0044F60070C2F20000836B11
:1052C00047F8046D1E4600B5002E01D047F8046D66
:1052D000002E40CF0DD016F0FF0608CF1B021E4354
:1052E000FDF75DFF44F60070C2F200000023836307
:1052F00007E056F4807644F60070C2F20000866340
:1053000040CF00BD3053000000000663616C696748
:105310006E0044F60070C2F20000836B00B5002BF3
:1053200004D047F8046D0026FFF7C5FF00BD00005C
:10533000A053000000000B636F726E657273746F90
:105340006E6500B5FDF7DEFCFEF7B5FA47F8046DB3
:10535000FFF7A5FE761E08CF1E40002E40CF05D0D9
:1053600047F8046D0026FDF71AFFEDE742F6CB4043
:10537000804747F8046DBEF1010647F8046D47F811
:10538000046DFFF78CFE761E08CF1E40002E40CF26
:1053900001D0B61CF1E7FDF775F9FCF7B4FD00BDCF
:1053A000D0530000201809696E69742D72696E6708
:1053B000761E08CF1E6040CF704703001A20000001
:1053C0006102DA0E0000620286180000200200006E
:1053D00000540000201804632B2B40003378761C07
:1053E00047F8043D70470400720E00006102EA199C
:1053F00000002002DA0E000062023220000061028A
:105400002C54000000000972696E672D737465707A
:1054100008CFF618327800B504B43278521C3270D6
:105420001E7804BC16400433F61800BD4C5400002E
:1054300020080572696E67233378761C3278761CF3
:105440003178761C561A1E4070470000A0540000A8
:1054500000100572696E673F47F8046D3378761C5B
:105460003278761C3178761C561A1E4008CF1B788D
:105470009E4202DA0026F64300E00026704705004F
:10548000720E00006102385400002008DA0E00009D
:105490006202EA19000020029A1400004202000091
:1054A000C05400000000053E72696E6747F8046D45
:1054B000012600B5FFF7ACFF08CF337040CF00BD29
:1054C000DC54000000000572696E673E47F8046D09
:1054D000022600B5FFF79CFF367800BD0C55000092
:1054E0000000077573623A646576360000B542F6CF
:1054F000A540C0F2000080471201000202000040F7
:105500008304405700020102030100006C550000B3
:105510000000087573623A636F6E660000B542F66C
:10552000A540C0F20000804709024300020100C00C
:1055300032090400000102020100052400100105E7
:10554000240100010424020205240600010705824B
:10555000030800FF09040100020A00000007050318
:105560000240000007058102400000009055000045
:1055700000000A7573623A6C616E676964003600F8
:1055800000B542F6A540C0F20000804704030904BC
:10559000D855000000000A7573623A76656E646F34
:1055A0007200360000B542F6A540C0F20000804708
:1055B00028034D00650063007200690073007000ED
:1055C00020002800530054004D00330032004600F4
:1055D00031003000780029001C56000000000B75D7
:1055E00073623A70726F64756374360000B542F688
:1055F000A540C0F200008047240346006F007200FF
:1056000074006800200053006500720069006100AA
:105610006C00200050006F007200740040560000C3
:105620000000087573623A6C696E650000B542F659
:10563000A540C0F20000804700C201000100080040
:105640007C5600000000087573623A696E69740048
:1056500000B542F6A540C0F200008047800000007F
:1056600040000084C0000000000000004001000075
:1056700000000000000000000001008494560000BB
:1056800040000355534247F8046D45F60046C4F206
:1056900000067047B45600004000085553422D459F
:1056A0005030520047F8046D45F60046C4F200063B
:1056B00070470000D45600004000085553422D4367
:1056C0004E54520047F8046D45F64046C4F20006B9
:1056D00070470000F45600004000085553422D4921
:1056E0005354520047F8046D45F64446C4F2000690
:1056F00070470000105700004000075553422D46E8
:105700004E5247F8046D45F64846C4F2000670470D
:10571000305700004000095553422D444144445243
:1057200047F8046D45F64C46C4F200067047000089
:105730005057000040000A5553422D425441424CFC
:10574000450047F8046D45F65046C4F20006704720
:105750006C5700004000065553424D454D0047F838
:10576000046D46F20006C4F2000670479057000030
:105770002008077573622D706D6116F001035B429E
:1057800076009E1946F20003C4F20003F618704733
:10579000C85700000010087573622D706D614000DD
:1057A00016F001035B4276009E1946F20003C4F234
:1057B0000003F6183688704702007A570000200868
:1057C000161900002002000004580000001008759F
:1057D00073622D706D61210016F001035B4276004B
:1057E0009E1946F20003C4F20003F61808CF338076
:1057F00040CF704702007A57000020085A19000075
:10580000200200003458000020180765702D6164E4
:105810006472B60045F60043C4F20003F618704700
:1058200003001E2100006102005C004000203C1FBC
:10583000000062026458000000000665702D726569
:105840006700760008CF08225343F61816F00103CC
:105850005B4276009E1946F20003C4F20003F6187C
:1058600070470000A8580000000007727873746148
:10587000742108CF9B0045F60042C4F200029B1839
:1058800000B508B43603009B1B885E4016F44056F2
:1058900040F60F72134048F2800213431E4308BCC7
:1058A0001E8040CF00BD0000EC58000000000774CF
:1058B00078737461742108CF9B0045F60042C4F2EE
:1058C00000029B1800B508B43601009B1B885E409F
:1058D00016F0300640F60F72134048F28002134370
:1058E0001E4308BC1E8040CF00BD000024590000AC
:1058F00000000C65702D72657365742D727823003D
:1059000047F8046D5FF4044347F8043D47F8046D1D
:10591000032600B5FFF795FF08CF33800326FFF776
:10592000A8FF00BD545900000000077278636C6541
:105930006172B60045F60043C4F20003F6183388DE
:1059400047F6FF72134048F68F721340338040CF02
:1059500070470000845900000000077478636C658C
:105960006172B60045F60043C4F20003F6183388AE
:105970004FF67F72134048F68F721340338040CF4A
:1059800070470000AC5900008200087573622D70EA
:10599000656E640047F8046D44F63076C2F2000686
:1059A000704700000000000000000000D059000017
:1059B00040010A7573622D73657269616C0047F866
:1059C000046D44F61C76C2F2000670471400000015
:1059D0006C5A000000000A7365742D73657269616A
:1059E0006C0044F68070C2F20000C36F47F8046D8B
:1059F0001E4600B5FCF73EFCFFF720FB47F8046DA0
:105A00000026FEF74BFC47F8046D30B4002408254F
:105A100040CFFEF72CFC0134AC42FAD130BCFEF78B
:105A2000F2FB30B40024350040CF33782200521C02
:105A3000520044F61C71C2F2000152181380761C09
:105A40000134AC42F1D130BC40CF44F68070C2F298
:105A50000000C66744F60070C2F2000040F2123641
:105A6000868344F61C76C2F2000600BD9C5A0000F4
:105A700020180973656E642D6461746108CF44F663
:105A80000070C2F200000663436340CF704702001B
:105A9000304F00200020900C00002002945B00009A
:105AA00000000973656E642D6E65787444F60070AD
:105AB000C2F20000436B026B40218A4200DB0A46BF
:105AC00047F8046D47F8043D47F8042D462616F0C4
:105AD00001035B4276009E1946F20003C4F2000304
:105AE000F618368808CF9E4200DB1E4600B540B44B
:105AF000009E01203040361830B40024350040CFDD
:105B0000AC421FD02300F3181B882200803247F8D4
:105B1000046D47F8043D164616F001035B4276001B
:105B20009E1946F20003C4F20003F61808CF338032
